{
	"docs.chain.link/samples/VRF/VRFD20.sol": {
		"VRFD20": {
			"abi": [
				{
					"inputs": [
						{
							"internalType": "uint64",
							"name": "subscriptionId",
							"type": "uint64"
						}
					],
					"stateMutability": "nonpayable",
					"type": "constructor"
				},
				{
					"inputs": [
						{
							"internalType": "address",
							"name": "have",
							"type": "address"
						},
						{
							"internalType": "address",
							"name": "want",
							"type": "address"
						}
					],
					"name": "OnlyCoordinatorCanFulfill",
					"type": "error"
				},
				{
					"anonymous": false,
					"inputs": [
						{
							"indexed": true,
							"internalType": "uint256",
							"name": "requestId",
							"type": "uint256"
						},
						{
							"indexed": true,
							"internalType": "uint256",
							"name": "result",
							"type": "uint256"
						}
					],
					"name": "DiceLanded",
					"type": "event"
				},
				{
					"anonymous": false,
					"inputs": [
						{
							"indexed": true,
							"internalType": "uint256",
							"name": "requestId",
							"type": "uint256"
						},
						{
							"indexed": true,
							"internalType": "address",
							"name": "roller",
							"type": "address"
						}
					],
					"name": "DiceRolled",
					"type": "event"
				},
				{
					"inputs": [
						{
							"internalType": "address",
							"name": "player",
							"type": "address"
						}
					],
					"name": "house",
					"outputs": [
						{
							"internalType": "string",
							"name": "",
							"type": "string"
						}
					],
					"stateMutability": "view",
					"type": "function"
				},
				{
					"inputs": [
						{
							"internalType": "uint256",
							"name": "requestId",
							"type": "uint256"
						},
						{
							"internalType": "uint256[]",
							"name": "randomWords",
							"type": "uint256[]"
						}
					],
					"name": "rawFulfillRandomWords",
					"outputs": [],
					"stateMutability": "nonpayable",
					"type": "function"
				},
				{
					"inputs": [
						{
							"internalType": "address",
							"name": "roller",
							"type": "address"
						}
					],
					"name": "rollDice",
					"outputs": [
						{
							"internalType": "uint256",
							"name": "requestId",
							"type": "uint256"
						}
					],
					"stateMutability": "nonpayable",
					"type": "function"
				}
			],
			"devdoc": {
				"kind": "dev",
				"methods": {
					"constructor": {
						"details": "NETWORK: RINKEBY",
						"params": {
							"subscriptionId": "subscription id that this consumer contract can use"
						}
					},
					"house(address)": {
						"params": {
							"player": "address"
						},
						"returns": {
							"_0": "house as a string"
						}
					},
					"rollDice(address)": {
						"details": "Warning: if the VRF response is delayed, avoid calling requestRandomness repeatedly as that would give miners/VRF operators latitude about which VRF response arrives first.You must review your implementation details with extreme care.",
						"params": {
							"roller": "address of the roller"
						}
					}
				},
				"version": 1
			},
			"evm": {
				"assembly": "    /* \"docs.chain.link/samples/VRF/VRFD20.sol\":488:5850  contract VRFD20 is VRFConsumerBaseV2 {... */\n  mstore(0x40, 0xa0)\n    /* \"docs.chain.link/samples/VRF/VRFD20.sol\":830:872  0x6168499c0cFfCaCD319c818142124B7A15E857ab */\n  0x6168499c0cffcacd319c818142124b7a15e857ab\n    /* \"docs.chain.link/samples/VRF/VRFD20.sol\":805:872  address vrfCoordinator = 0x6168499c0cFfCaCD319c818142124B7A15E857ab */\n  0x01\n  exp(0x0100, 0x00)\n  dup2\n  sload\n  dup2\n  0xffffffffffffffffffffffffffffffffffffffff\n  mul\n  not\n  and\n  swap1\n  dup4\n  0xffffffffffffffffffffffffffffffffffffffff\n  and\n  mul\n  or\n  swap1\n  sstore\n  pop\n    /* \"docs.chain.link/samples/VRF/VRFD20.sol\":1105:1171  0xd89b2bf150e3b9e13446986e571fb9cab24b13cea0a43ea20a6049a85cc807cc */\n  0xd89b2bf150e3b9e13446986e571fb9cab24b13cea0a43ea20a6049a85cc807cc\n    /* \"docs.chain.link/samples/VRF/VRFD20.sol\":1085:1171  bytes32 s_keyHash = 0xd89b2bf150e3b9e13446986e571fb9cab24b13cea0a43ea20a6049a85cc807cc */\n  0x00\n  shl\n  0x02\n  sstore\n    /* \"docs.chain.link/samples/VRF/VRFD20.sol\":1613:1618  40000 */\n  0x9c40\n    /* \"docs.chain.link/samples/VRF/VRFD20.sol\":1587:1618  uint32 callbackGasLimit = 40000 */\n  0x03\n  exp(0x0100, 0x00)\n  dup2\n  sload\n  dup2\n  0xffffffff\n  mul\n  not\n  and\n  swap1\n  dup4\n  0xffffffff\n  and\n  mul\n  or\n  swap1\n  sstore\n  pop\n    /* \"docs.chain.link/samples/VRF/VRFD20.sol\":1709:1710  3 */\n  0x03\n    /* \"docs.chain.link/samples/VRF/VRFD20.sol\":1679:1710  uint16 requestConfirmations = 3 */\n  dup1\n  exp(0x0100, 0x04)\n  dup2\n  sload\n  dup2\n  0xffff\n  mul\n  not\n  and\n  swap1\n  dup4\n  0xffff\n  and\n  mul\n  or\n  swap1\n  sstore\n  pop\n    /* \"docs.chain.link/samples/VRF/VRFD20.sol\":1853:1854  1 */\n  0x01\n    /* \"docs.chain.link/samples/VRF/VRFD20.sol\":1835:1854  uint32 numWords = 1 */\n  0x03\n  exp(0x0100, 0x06)\n  dup2\n  sload\n  dup2\n  0xffffffff\n  mul\n  not\n  and\n  swap1\n  dup4\n  0xffffffff\n  and\n  mul\n  or\n  swap1\n  sstore\n  pop\n    /* \"docs.chain.link/samples/VRF/VRFD20.sol\":2393:2607  constructor(uint64 subscriptionId) VRFConsumerBaseV2(vrfCoordinator) {... */\n  callvalue\n  dup1\n  iszero\n  tag_1\n  jumpi\n  0x00\n  dup1\n  revert\ntag_1:\n  pop\n  mload(0x40)\n  sub(codesize, bytecodeSize)\n  dup1\n  bytecodeSize\n  dup4\n  codecopy\n  dup2\n  dup2\n  add\n  0x40\n  mstore\n  dup2\n  add\n  swap1\n  tag_2\n  swap2\n  swap1\n  tag_3\n  jump\t// in\ntag_2:\n    /* \"docs.chain.link/samples/VRF/VRFD20.sol\":2446:2460  vrfCoordinator */\n  0x01\n  0x00\n  swap1\n  sload\n  swap1\n  0x0100\n  exp\n  swap1\n  div\n  0xffffffffffffffffffffffffffffffffffffffff\n  and\n    /* \"@chainlink/contracts/src/v0.8/VRFConsumerBaseV2.sol\":5616:5631  _vrfCoordinator */\n  dup1\n    /* \"@chainlink/contracts/src/v0.8/VRFConsumerBaseV2.sol\":5599:5631  vrfCoordinator = _vrfCoordinator */\n  0xffffffffffffffffffffffffffffffffffffffff\n  and\n  0x80\n  dup2\n  0xffffffffffffffffffffffffffffffffffffffff\n  and\n  0x60\n  shl\n  dup2\n  mstore\n  pop\n  pop\n    /* \"@chainlink/contracts/src/v0.8/VRFConsumerBaseV2.sol\":5556:5636  constructor(address _vrfCoordinator) {... */\n  pop\n    /* \"docs.chain.link/samples/VRF/VRFD20.sol\":2512:2526  vrfCoordinator */\n  0x01\n  0x00\n  swap1\n  sload\n  swap1\n  0x0100\n  exp\n  swap1\n  div\n  0xffffffffffffffffffffffffffffffffffffffff\n  and\n    /* \"docs.chain.link/samples/VRF/VRFD20.sol\":2472:2483  COORDINATOR */\n  0x00\n  dup1\n    /* \"docs.chain.link/samples/VRF/VRFD20.sol\":2472:2527  COORDINATOR = VRFCoordinatorV2Interface(vrfCoordinator) */\n  0x0100\n  exp\n  dup2\n  sload\n  dup2\n  0xffffffffffffffffffffffffffffffffffffffff\n  mul\n  not\n  and\n  swap1\n  dup4\n  0xffffffffffffffffffffffffffffffffffffffff\n  and\n  mul\n  or\n  swap1\n  sstore\n  pop\n    /* \"docs.chain.link/samples/VRF/VRFD20.sol\":2547:2557  msg.sender */\n  caller\n    /* \"docs.chain.link/samples/VRF/VRFD20.sol\":2537:2544  s_owner */\n  0x03\n  0x0a\n    /* \"docs.chain.link/samples/VRF/VRFD20.sol\":2537:2557  s_owner = msg.sender */\n  0x0100\n  exp\n  dup2\n  sload\n  dup2\n  0xffffffffffffffffffffffffffffffffffffffff\n  mul\n  not\n  and\n  swap1\n  dup4\n  0xffffffffffffffffffffffffffffffffffffffff\n  and\n  mul\n  or\n  swap1\n  sstore\n  pop\n    /* \"docs.chain.link/samples/VRF/VRFD20.sol\":2586:2600  subscriptionId */\n  dup1\n    /* \"docs.chain.link/samples/VRF/VRFD20.sol\":2567:2583  s_subscriptionId */\n  0x00\n  0x14\n    /* \"docs.chain.link/samples/VRF/VRFD20.sol\":2567:2600  s_subscriptionId = subscriptionId */\n  0x0100\n  exp\n  dup2\n  sload\n  dup2\n  0xffffffffffffffff\n  mul\n  not\n  and\n  swap1\n  dup4\n  0xffffffffffffffff\n  and\n  mul\n  or\n  swap1\n  sstore\n  pop\n    /* \"docs.chain.link/samples/VRF/VRFD20.sol\":2393:2607  constructor(uint64 subscriptionId) VRFConsumerBaseV2(vrfCoordinator) {... */\n  pop\n    /* \"docs.chain.link/samples/VRF/VRFD20.sol\":488:5850  contract VRFD20 is VRFConsumerBaseV2 {... */\n  jump(tag_8)\n    /* \"#utility.yul\":7:148   */\ntag_10:\n    /* \"#utility.yul\":63:68   */\n  0x00\n    /* \"#utility.yul\":94:100   */\n  dup2\n    /* \"#utility.yul\":88:101   */\n  mload\n    /* \"#utility.yul\":79:101   */\n  swap1\n  pop\n    /* \"#utility.yul\":110:142   */\n  tag_12\n    /* \"#utility.yul\":136:141   */\n  dup2\n    /* \"#utility.yul\":110:142   */\n  tag_13\n  jump\t// in\ntag_12:\n    /* \"#utility.yul\":7:148   */\n  swap3\n  swap2\n  pop\n  pop\n  jump\t// out\n    /* \"#utility.yul\":154:503   */\ntag_3:\n    /* \"#utility.yul\":223:229   */\n  0x00\n    /* \"#utility.yul\":272:274   */\n  0x20\n    /* \"#utility.yul\":260:269   */\n  dup3\n    /* \"#utility.yul\":251:258   */\n  dup5\n    /* \"#utility.yul\":247:270   */\n  sub\n    /* \"#utility.yul\":243:275   */\n  slt\n    /* \"#utility.yul\":240:359   */\n  iszero\n  tag_15\n  jumpi\n    /* \"#utility.yul\":278:357   */\n  tag_16\n  tag_17\n  jump\t// in\ntag_16:\n    /* \"#utility.yul\":240:359   */\ntag_15:\n    /* \"#utility.yul\":398:399   */\n  0x00\n    /* \"#utility.yul\":423:486   */\n  tag_18\n    /* \"#utility.yul\":478:485   */\n  dup5\n    /* \"#utility.yul\":469:475   */\n  dup3\n    /* \"#utility.yul\":458:467   */\n  dup6\n    /* \"#utility.yul\":454:476   */\n  add\n    /* \"#utility.yul\":423:486   */\n  tag_10\n  jump\t// in\ntag_18:\n    /* \"#utility.yul\":413:486   */\n  swap2\n  pop\n    /* \"#utility.yul\":369:496   */\n  pop\n    /* \"#utility.yul\":154:503   */\n  swap3\n  swap2\n  pop\n  pop\n  jump\t// out\n    /* \"#utility.yul\":590:691   */\ntag_21:\n    /* \"#utility.yul\":626:633   */\n  0x00\n    /* \"#utility.yul\":666:684   */\n  0xffffffffffffffff\n    /* \"#utility.yul\":659:664   */\n  dup3\n    /* \"#utility.yul\":655:685   */\n  and\n    /* \"#utility.yul\":644:685   */\n  swap1\n  pop\n    /* \"#utility.yul\":590:691   */\n  swap2\n  swap1\n  pop\n  jump\t// out\n    /* \"#utility.yul\":820:937   */\ntag_17:\n    /* \"#utility.yul\":929:930   */\n  0x00\n    /* \"#utility.yul\":926:927   */\n  dup1\n    /* \"#utility.yul\":919:931   */\n  revert\n    /* \"#utility.yul\":943:1063   */\ntag_13:\n    /* \"#utility.yul\":1015:1038   */\n  tag_27\n    /* \"#utility.yul\":1032:1037   */\n  dup2\n    /* \"#utility.yul\":1015:1038   */\n  tag_21\n  jump\t// in\ntag_27:\n    /* \"#utility.yul\":1008:1013   */\n  dup2\n    /* \"#utility.yul\":1005:1039   */\n  eq\n    /* \"#utility.yul\":995:1057   */\n  tag_28\n  jumpi\n    /* \"#utility.yul\":1053:1054   */\n  0x00\n    /* \"#utility.yul\":1050:1051   */\n  dup1\n    /* \"#utility.yul\":1043:1055   */\n  revert\n    /* \"#utility.yul\":995:1057   */\ntag_28:\n    /* \"#utility.yul\":943:1063   */\n  pop\n  jump\t// out\n    /* \"docs.chain.link/samples/VRF/VRFD20.sol\":488:5850  contract VRFD20 is VRFConsumerBaseV2 {... */\ntag_8:\n  shr(0x60, mload(0x80))\n  codecopy(0x00, dataOffset(sub_0), dataSize(sub_0))\n  0x00\n  assignImmutable(\"0x1a192fabce13988b84994d4296e6cdc418d55e2f1d7f942188d4040b94fc57ac\")\n  return(0x00, dataSize(sub_0))\nstop\n\nsub_0: assembly {\n        /* \"docs.chain.link/samples/VRF/VRFD20.sol\":488:5850  contract VRFD20 is VRFConsumerBaseV2 {... */\n      mstore(0x40, 0x80)\n      callvalue\n      dup1\n      iszero\n      tag_1\n      jumpi\n      0x00\n      dup1\n      revert\n    tag_1:\n      pop\n      jumpi(tag_2, lt(calldatasize, 0x04))\n      shr(0xe0, calldataload(0x00))\n      dup1\n      0x1fe543e3\n      eq\n      tag_3\n      jumpi\n      dup1\n      0xb1cad5e3\n      eq\n      tag_4\n      jumpi\n      dup1\n      0xdd02d9e5\n      eq\n      tag_5\n      jumpi\n    tag_2:\n      0x00\n      dup1\n      revert\n        /* \"@chainlink/contracts/src/v0.8/VRFConsumerBaseV2.sol\":6618:6874  function rawFulfillRandomWords(uint256 requestId, uint256[] memory randomWords) external {... */\n    tag_3:\n      tag_6\n      0x04\n      dup1\n      calldatasize\n      sub\n      dup2\n      add\n      swap1\n      tag_7\n      swap2\n      swap1\n      tag_8\n      jump\t// in\n    tag_7:\n      tag_9\n      jump\t// in\n    tag_6:\n      stop\n        /* \"docs.chain.link/samples/VRF/VRFD20.sol\":4762:5020  function house(address player) public view returns (string memory) {... */\n    tag_4:\n      tag_10\n      0x04\n      dup1\n      calldatasize\n      sub\n      dup2\n      add\n      swap1\n      tag_11\n      swap2\n      swap1\n      tag_12\n      jump\t// in\n    tag_11:\n      tag_13\n      jump\t// in\n    tag_10:\n      mload(0x40)\n      tag_14\n      swap2\n      swap1\n      tag_15\n      jump\t// in\n    tag_14:\n      mload(0x40)\n      dup1\n      swap2\n      sub\n      swap1\n      return\n        /* \"docs.chain.link/samples/VRF/VRFD20.sol\":2981:3519  function rollDice(address roller) public onlyOwner returns (uint256 requestId) {... */\n    tag_5:\n      tag_16\n      0x04\n      dup1\n      calldatasize\n      sub\n      dup2\n      add\n      swap1\n      tag_17\n      swap2\n      swap1\n      tag_12\n      jump\t// in\n    tag_17:\n      tag_18\n      jump\t// in\n    tag_16:\n      mload(0x40)\n      tag_19\n      swap2\n      swap1\n      tag_20\n      jump\t// in\n    tag_19:\n      mload(0x40)\n      dup1\n      swap2\n      sub\n      swap1\n      return\n        /* \"@chainlink/contracts/src/v0.8/VRFConsumerBaseV2.sol\":6618:6874  function rawFulfillRandomWords(uint256 requestId, uint256[] memory randomWords) external {... */\n    tag_9:\n        /* \"@chainlink/contracts/src/v0.8/VRFConsumerBaseV2.sol\":6731:6745  vrfCoordinator */\n      immutable(\"0x1a192fabce13988b84994d4296e6cdc418d55e2f1d7f942188d4040b94fc57ac\")\n        /* \"@chainlink/contracts/src/v0.8/VRFConsumerBaseV2.sol\":6717:6745  msg.sender != vrfCoordinator */\n      0xffffffffffffffffffffffffffffffffffffffff\n      and\n        /* \"@chainlink/contracts/src/v0.8/VRFConsumerBaseV2.sol\":6717:6727  msg.sender */\n      caller\n        /* \"@chainlink/contracts/src/v0.8/VRFConsumerBaseV2.sol\":6717:6745  msg.sender != vrfCoordinator */\n      0xffffffffffffffffffffffffffffffffffffffff\n      and\n      eq\n        /* \"@chainlink/contracts/src/v0.8/VRFConsumerBaseV2.sol\":6713:6822  if (msg.sender != vrfCoordinator) {... */\n      tag_22\n      jumpi\n        /* \"@chainlink/contracts/src/v0.8/VRFConsumerBaseV2.sol\":6788:6798  msg.sender */\n      caller\n        /* \"@chainlink/contracts/src/v0.8/VRFConsumerBaseV2.sol\":6800:6814  vrfCoordinator */\n      immutable(\"0x1a192fabce13988b84994d4296e6cdc418d55e2f1d7f942188d4040b94fc57ac\")\n        /* \"@chainlink/contracts/src/v0.8/VRFConsumerBaseV2.sol\":6762:6815  OnlyCoordinatorCanFulfill(msg.sender, vrfCoordinator) */\n      mload(0x40)\n      0x1cf993f400000000000000000000000000000000000000000000000000000000\n      dup2\n      mstore\n      0x04\n      add\n      tag_23\n      swap3\n      swap2\n      swap1\n      tag_24\n      jump\t// in\n    tag_23:\n      mload(0x40)\n      dup1\n      swap2\n      sub\n      swap1\n      revert\n        /* \"@chainlink/contracts/src/v0.8/VRFConsumerBaseV2.sol\":6713:6822  if (msg.sender != vrfCoordinator) {... */\n    tag_22:\n        /* \"@chainlink/contracts/src/v0.8/VRFConsumerBaseV2.sol\":6827:6869  fulfillRandomWords(requestId, randomWords) */\n      tag_25\n        /* \"@chainlink/contracts/src/v0.8/VRFConsumerBaseV2.sol\":6846:6855  requestId */\n      dup3\n        /* \"@chainlink/contracts/src/v0.8/VRFConsumerBaseV2.sol\":6857:6868  randomWords */\n      dup3\n        /* \"@chainlink/contracts/src/v0.8/VRFConsumerBaseV2.sol\":6827:6845  fulfillRandomWords */\n      tag_26\n        /* \"@chainlink/contracts/src/v0.8/VRFConsumerBaseV2.sol\":6827:6869  fulfillRandomWords(requestId, randomWords) */\n      jump\t// in\n    tag_25:\n        /* \"@chainlink/contracts/src/v0.8/VRFConsumerBaseV2.sol\":6618:6874  function rawFulfillRandomWords(uint256 requestId, uint256[] memory randomWords) external {... */\n      pop\n      pop\n      jump\t// out\n        /* \"docs.chain.link/samples/VRF/VRFD20.sol\":4762:5020  function house(address player) public view returns (string memory) {... */\n    tag_13:\n        /* \"docs.chain.link/samples/VRF/VRFD20.sol\":4814:4827  string memory */\n      0x60\n        /* \"docs.chain.link/samples/VRF/VRFD20.sol\":4868:4869  0 */\n      0x00\n        /* \"docs.chain.link/samples/VRF/VRFD20.sol\":4847:4856  s_results */\n      0x05\n        /* \"docs.chain.link/samples/VRF/VRFD20.sol\":4847:4864  s_results[player] */\n      0x00\n        /* \"docs.chain.link/samples/VRF/VRFD20.sol\":4857:4863  player */\n      dup5\n        /* \"docs.chain.link/samples/VRF/VRFD20.sol\":4847:4864  s_results[player] */\n      0xffffffffffffffffffffffffffffffffffffffff\n      and\n      0xffffffffffffffffffffffffffffffffffffffff\n      and\n      dup2\n      mstore\n      0x20\n      add\n      swap1\n      dup2\n      mstore\n      0x20\n      add\n      0x00\n      keccak256\n      sload\n        /* \"docs.chain.link/samples/VRF/VRFD20.sol\":4847:4869  s_results[player] != 0 */\n      eq\n      iszero\n        /* \"docs.chain.link/samples/VRF/VRFD20.sol\":4839:4889  require(s_results[player] != 0, 'Dice not rolled') */\n      tag_28\n      jumpi\n      mload(0x40)\n      0x08c379a000000000000000000000000000000000000000000000000000000000\n      dup2\n      mstore\n      0x04\n      add\n      tag_29\n      swap1\n      tag_30\n      jump\t// in\n    tag_29:\n      mload(0x40)\n      dup1\n      swap2\n      sub\n      swap1\n      revert\n    tag_28:\n        /* \"docs.chain.link/samples/VRF/VRFD20.sol\":575:577  42 */\n      0x2a\n        /* \"docs.chain.link/samples/VRF/VRFD20.sol\":4907:4916  s_results */\n      0x05\n        /* \"docs.chain.link/samples/VRF/VRFD20.sol\":4907:4924  s_results[player] */\n      0x00\n        /* \"docs.chain.link/samples/VRF/VRFD20.sol\":4917:4923  player */\n      dup5\n        /* \"docs.chain.link/samples/VRF/VRFD20.sol\":4907:4924  s_results[player] */\n      0xffffffffffffffffffffffffffffffffffffffff\n      and\n      0xffffffffffffffffffffffffffffffffffffffff\n      and\n      dup2\n      mstore\n      0x20\n      add\n      swap1\n      dup2\n      mstore\n      0x20\n      add\n      0x00\n      keccak256\n      sload\n        /* \"docs.chain.link/samples/VRF/VRFD20.sol\":4907:4944  s_results[player] != ROLL_IN_PROGRESS */\n      eq\n      iszero\n        /* \"docs.chain.link/samples/VRF/VRFD20.sol\":4899:4965  require(s_results[player] != ROLL_IN_PROGRESS, 'Roll in progress') */\n      tag_31\n      jumpi\n      mload(0x40)\n      0x08c379a000000000000000000000000000000000000000000000000000000000\n      dup2\n      mstore\n      0x04\n      add\n      tag_32\n      swap1\n      tag_33\n      jump\t// in\n    tag_32:\n      mload(0x40)\n      dup1\n      swap2\n      sub\n      swap1\n      revert\n    tag_31:\n        /* \"docs.chain.link/samples/VRF/VRFD20.sol\":4982:5013  getHouseName(s_results[player]) */\n      tag_34\n        /* \"docs.chain.link/samples/VRF/VRFD20.sol\":4995:5004  s_results */\n      0x05\n        /* \"docs.chain.link/samples/VRF/VRFD20.sol\":4995:5012  s_results[player] */\n      0x00\n        /* \"docs.chain.link/samples/VRF/VRFD20.sol\":5005:5011  player */\n      dup5\n        /* \"docs.chain.link/samples/VRF/VRFD20.sol\":4995:5012  s_results[player] */\n      0xffffffffffffffffffffffffffffffffffffffff\n      and\n      0xffffffffffffffffffffffffffffffffffffffff\n      and\n      dup2\n      mstore\n      0x20\n      add\n      swap1\n      dup2\n      mstore\n      0x20\n      add\n      0x00\n      keccak256\n      sload\n        /* \"docs.chain.link/samples/VRF/VRFD20.sol\":4982:4994  getHouseName */\n      tag_35\n        /* \"docs.chain.link/samples/VRF/VRFD20.sol\":4982:5013  getHouseName(s_results[player]) */\n      jump\t// in\n    tag_34:\n        /* \"docs.chain.link/samples/VRF/VRFD20.sol\":4975:5013  return getHouseName(s_results[player]) */\n      swap1\n      pop\n        /* \"docs.chain.link/samples/VRF/VRFD20.sol\":4762:5020  function house(address player) public view returns (string memory) {... */\n      swap2\n      swap1\n      pop\n      jump\t// out\n        /* \"docs.chain.link/samples/VRF/VRFD20.sol\":2981:3519  function rollDice(address roller) public onlyOwner returns (uint256 requestId) {... */\n    tag_18:\n        /* \"docs.chain.link/samples/VRF/VRFD20.sol\":3041:3058  uint256 requestId */\n      0x00\n        /* \"docs.chain.link/samples/VRF/VRFD20.sol\":5822:5829  s_owner */\n      0x03\n      0x0a\n      swap1\n      sload\n      swap1\n      0x0100\n      exp\n      swap1\n      div\n      0xffffffffffffffffffffffffffffffffffffffff\n      and\n        /* \"docs.chain.link/samples/VRF/VRFD20.sol\":5808:5829  msg.sender == s_owner */\n      0xffffffffffffffffffffffffffffffffffffffff\n      and\n        /* \"docs.chain.link/samples/VRF/VRFD20.sol\":5808:5818  msg.sender */\n      caller\n        /* \"docs.chain.link/samples/VRF/VRFD20.sol\":5808:5829  msg.sender == s_owner */\n      0xffffffffffffffffffffffffffffffffffffffff\n      and\n      eq\n        /* \"docs.chain.link/samples/VRF/VRFD20.sol\":5800:5830  require(msg.sender == s_owner) */\n      tag_37\n      jumpi\n      0x00\n      dup1\n      revert\n    tag_37:\n        /* \"docs.chain.link/samples/VRF/VRFD20.sol\":3099:3100  0 */\n      0x00\n        /* \"docs.chain.link/samples/VRF/VRFD20.sol\":3078:3087  s_results */\n      0x05\n        /* \"docs.chain.link/samples/VRF/VRFD20.sol\":3078:3095  s_results[roller] */\n      0x00\n        /* \"docs.chain.link/samples/VRF/VRFD20.sol\":3088:3094  roller */\n      dup5\n        /* \"docs.chain.link/samples/VRF/VRFD20.sol\":3078:3095  s_results[roller] */\n      0xffffffffffffffffffffffffffffffffffffffff\n      and\n      0xffffffffffffffffffffffffffffffffffffffff\n      and\n      dup2\n      mstore\n      0x20\n      add\n      swap1\n      dup2\n      mstore\n      0x20\n      add\n      0x00\n      keccak256\n      sload\n        /* \"docs.chain.link/samples/VRF/VRFD20.sol\":3078:3100  s_results[roller] == 0 */\n      eq\n        /* \"docs.chain.link/samples/VRF/VRFD20.sol\":3070:3119  require(s_results[roller] == 0, 'Already rolled') */\n      tag_39\n      jumpi\n      mload(0x40)\n      0x08c379a000000000000000000000000000000000000000000000000000000000\n      dup2\n      mstore\n      0x04\n      add\n      tag_40\n      swap1\n      tag_41\n      jump\t// in\n    tag_40:\n      mload(0x40)\n      dup1\n      swap2\n      sub\n      swap1\n      revert\n    tag_39:\n        /* \"docs.chain.link/samples/VRF/VRFD20.sol\":3203:3214  COORDINATOR */\n      0x00\n      dup1\n      sload\n      swap1\n      0x0100\n      exp\n      swap1\n      div\n      0xffffffffffffffffffffffffffffffffffffffff\n      and\n        /* \"docs.chain.link/samples/VRF/VRFD20.sol\":3203:3233  COORDINATOR.requestRandomWords */\n      0xffffffffffffffffffffffffffffffffffffffff\n      and\n      0x5d3b1d30\n        /* \"docs.chain.link/samples/VRF/VRFD20.sol\":3247:3256  s_keyHash */\n      sload(0x02)\n        /* \"docs.chain.link/samples/VRF/VRFD20.sol\":3270:3286  s_subscriptionId */\n      0x00\n      0x14\n      swap1\n      sload\n      swap1\n      0x0100\n      exp\n      swap1\n      div\n      0xffffffffffffffff\n      and\n        /* \"docs.chain.link/samples/VRF/VRFD20.sol\":3300:3320  requestConfirmations */\n      0x03\n      0x04\n      swap1\n      sload\n      swap1\n      0x0100\n      exp\n      swap1\n      div\n      0xffff\n      and\n        /* \"docs.chain.link/samples/VRF/VRFD20.sol\":3334:3350  callbackGasLimit */\n      0x03\n      0x00\n      swap1\n      sload\n      swap1\n      0x0100\n      exp\n      swap1\n      div\n      0xffffffff\n      and\n        /* \"docs.chain.link/samples/VRF/VRFD20.sol\":3364:3372  numWords */\n      0x03\n      0x06\n      swap1\n      sload\n      swap1\n      0x0100\n      exp\n      swap1\n      div\n      0xffffffff\n      and\n        /* \"docs.chain.link/samples/VRF/VRFD20.sol\":3203:3382  COORDINATOR.requestRandomWords(... */\n      mload(0x40)\n      dup7\n      0xffffffff\n      and\n      0xe0\n      shl\n      dup2\n      mstore\n      0x04\n      add\n      tag_42\n      swap6\n      swap5\n      swap4\n      swap3\n      swap2\n      swap1\n      tag_43\n      jump\t// in\n    tag_42:\n      0x20\n      mload(0x40)\n      dup1\n      dup4\n      sub\n      dup2\n      0x00\n      dup8\n      dup1\n      extcodesize\n      iszero\n      dup1\n      iszero\n      tag_44\n      jumpi\n      0x00\n      dup1\n      revert\n    tag_44:\n      pop\n      gas\n      call\n      iszero\n      dup1\n      iszero\n      tag_46\n      jumpi\n      returndatasize\n      0x00\n      dup1\n      returndatacopy\n      revert(0x00, returndatasize)\n    tag_46:\n      pop\n      pop\n      pop\n      pop\n      mload(0x40)\n      returndatasize\n      not(0x1f)\n      0x1f\n      dup3\n      add\n      and\n      dup3\n      add\n      dup1\n      0x40\n      mstore\n      pop\n      dup2\n      add\n      swap1\n      tag_47\n      swap2\n      swap1\n      tag_48\n      jump\t// in\n    tag_47:\n        /* \"docs.chain.link/samples/VRF/VRFD20.sol\":3191:3382  requestId = COORDINATOR.requestRandomWords(... */\n      swap1\n      pop\n        /* \"docs.chain.link/samples/VRF/VRFD20.sol\":3416:3422  roller */\n      dup2\n        /* \"docs.chain.link/samples/VRF/VRFD20.sol\":3393:3402  s_rollers */\n      0x04\n        /* \"docs.chain.link/samples/VRF/VRFD20.sol\":3393:3413  s_rollers[requestId] */\n      0x00\n        /* \"docs.chain.link/samples/VRF/VRFD20.sol\":3403:3412  requestId */\n      dup4\n        /* \"docs.chain.link/samples/VRF/VRFD20.sol\":3393:3413  s_rollers[requestId] */\n      dup2\n      mstore\n      0x20\n      add\n      swap1\n      dup2\n      mstore\n      0x20\n      add\n      0x00\n      keccak256\n      0x00\n        /* \"docs.chain.link/samples/VRF/VRFD20.sol\":3393:3422  s_rollers[requestId] = roller */\n      0x0100\n      exp\n      dup2\n      sload\n      dup2\n      0xffffffffffffffffffffffffffffffffffffffff\n      mul\n      not\n      and\n      swap1\n      dup4\n      0xffffffffffffffffffffffffffffffffffffffff\n      and\n      mul\n      or\n      swap1\n      sstore\n      pop\n        /* \"docs.chain.link/samples/VRF/VRFD20.sol\":575:577  42 */\n      0x2a\n        /* \"docs.chain.link/samples/VRF/VRFD20.sol\":3432:3441  s_results */\n      0x05\n        /* \"docs.chain.link/samples/VRF/VRFD20.sol\":3432:3449  s_results[roller] */\n      0x00\n        /* \"docs.chain.link/samples/VRF/VRFD20.sol\":3442:3448  roller */\n      dup5\n        /* \"docs.chain.link/samples/VRF/VRFD20.sol\":3432:3449  s_results[roller] */\n      0xffffffffffffffffffffffffffffffffffffffff\n      and\n      0xffffffffffffffffffffffffffffffffffffffff\n      and\n      dup2\n      mstore\n      0x20\n      add\n      swap1\n      dup2\n      mstore\n      0x20\n      add\n      0x00\n      keccak256\n        /* \"docs.chain.link/samples/VRF/VRFD20.sol\":3432:3468  s_results[roller] = ROLL_IN_PROGRESS */\n      dup2\n      swap1\n      sstore\n      pop\n        /* \"docs.chain.link/samples/VRF/VRFD20.sol\":3505:3511  roller */\n      dup2\n        /* \"docs.chain.link/samples/VRF/VRFD20.sol\":3483:3512  DiceRolled(requestId, roller) */\n      0xffffffffffffffffffffffffffffffffffffffff\n      and\n        /* \"docs.chain.link/samples/VRF/VRFD20.sol\":3494:3503  requestId */\n      dup2\n        /* \"docs.chain.link/samples/VRF/VRFD20.sol\":3483:3512  DiceRolled(requestId, roller) */\n      0x3e7fdeab84c01ce5308321caa0b460e1c4ec3c7099223d79634d9a71d99932e3\n      mload(0x40)\n      mload(0x40)\n      dup1\n      swap2\n      sub\n      swap1\n      log3\n        /* \"docs.chain.link/samples/VRF/VRFD20.sol\":2981:3519  function rollDice(address roller) public onlyOwner returns (uint256 requestId) {... */\n      swap2\n      swap1\n      pop\n      jump\t// out\n        /* \"docs.chain.link/samples/VRF/VRFD20.sol\":4344:4598  function fulfillRandomWords(uint256 requestId, uint256[] memory randomWords) internal override {... */\n    tag_26:\n        /* \"docs.chain.link/samples/VRF/VRFD20.sol\":4449:4465  uint256 d20Value */\n      0x00\n        /* \"docs.chain.link/samples/VRF/VRFD20.sol\":4492:4493  1 */\n      0x01\n        /* \"docs.chain.link/samples/VRF/VRFD20.sol\":4486:4488  20 */\n      0x14\n        /* \"docs.chain.link/samples/VRF/VRFD20.sol\":4469:4480  randomWords */\n      dup4\n        /* \"docs.chain.link/samples/VRF/VRFD20.sol\":4481:4482  0 */\n      0x00\n        /* \"docs.chain.link/samples/VRF/VRFD20.sol\":4469:4483  randomWords[0] */\n      dup2\n      mload\n      dup2\n      lt\n      tag_50\n      jumpi\n      tag_51\n      tag_52\n      jump\t// in\n    tag_51:\n    tag_50:\n      0x20\n      mul\n      0x20\n      add\n      add\n      mload\n        /* \"docs.chain.link/samples/VRF/VRFD20.sol\":4469:4488  randomWords[0] % 20 */\n      tag_53\n      swap2\n      swap1\n      tag_54\n      jump\t// in\n    tag_53:\n        /* \"docs.chain.link/samples/VRF/VRFD20.sol\":4468:4493  (randomWords[0] % 20) + 1 */\n      tag_55\n      swap2\n      swap1\n      tag_56\n      jump\t// in\n    tag_55:\n        /* \"docs.chain.link/samples/VRF/VRFD20.sol\":4449:4493  uint256 d20Value = (randomWords[0] % 20) + 1 */\n      swap1\n      pop\n        /* \"docs.chain.link/samples/VRF/VRFD20.sol\":4537:4545  d20Value */\n      dup1\n        /* \"docs.chain.link/samples/VRF/VRFD20.sol\":4503:4512  s_results */\n      0x05\n        /* \"docs.chain.link/samples/VRF/VRFD20.sol\":4503:4534  s_results[s_rollers[requestId]] */\n      0x00\n        /* \"docs.chain.link/samples/VRF/VRFD20.sol\":4513:4522  s_rollers */\n      0x04\n        /* \"docs.chain.link/samples/VRF/VRFD20.sol\":4513:4533  s_rollers[requestId] */\n      0x00\n        /* \"docs.chain.link/samples/VRF/VRFD20.sol\":4523:4532  requestId */\n      dup8\n        /* \"docs.chain.link/samples/VRF/VRFD20.sol\":4513:4533  s_rollers[requestId] */\n      dup2\n      mstore\n      0x20\n      add\n      swap1\n      dup2\n      mstore\n      0x20\n      add\n      0x00\n      keccak256\n      0x00\n      swap1\n      sload\n      swap1\n      0x0100\n      exp\n      swap1\n      div\n      0xffffffffffffffffffffffffffffffffffffffff\n      and\n        /* \"docs.chain.link/samples/VRF/VRFD20.sol\":4503:4534  s_results[s_rollers[requestId]] */\n      0xffffffffffffffffffffffffffffffffffffffff\n      and\n      0xffffffffffffffffffffffffffffffffffffffff\n      and\n      dup2\n      mstore\n      0x20\n      add\n      swap1\n      dup2\n      mstore\n      0x20\n      add\n      0x00\n      keccak256\n        /* \"docs.chain.link/samples/VRF/VRFD20.sol\":4503:4545  s_results[s_rollers[requestId]] = d20Value */\n      dup2\n      swap1\n      sstore\n      pop\n        /* \"docs.chain.link/samples/VRF/VRFD20.sol\":4582:4590  d20Value */\n      dup1\n        /* \"docs.chain.link/samples/VRF/VRFD20.sol\":4571:4580  requestId */\n      dup4\n        /* \"docs.chain.link/samples/VRF/VRFD20.sol\":4560:4591  DiceLanded(requestId, d20Value) */\n      0x54d97c1f7e5abad75bd421455cd4dd296852a52e1ea721f2cdb66d06fa2082a9\n      mload(0x40)\n      mload(0x40)\n      dup1\n      swap2\n      sub\n      swap1\n      log3\n        /* \"docs.chain.link/samples/VRF/VRFD20.sol\":4439:4598  {... */\n      pop\n        /* \"docs.chain.link/samples/VRF/VRFD20.sol\":4344:4598  function fulfillRandomWords(uint256 requestId, uint256[] memory randomWords) internal override {... */\n      pop\n      pop\n      jump\t// out\n        /* \"docs.chain.link/samples/VRF/VRFD20.sol\":5147:5763  function getHouseName(uint256 id) private pure returns (string memory) {... */\n    tag_35:\n        /* \"docs.chain.link/samples/VRF/VRFD20.sol\":5203:5216  string memory */\n      0x60\n        /* \"docs.chain.link/samples/VRF/VRFD20.sol\":5228:5256  string[20] memory houseNames */\n      0x00\n        /* \"docs.chain.link/samples/VRF/VRFD20.sol\":5228:5721  string[20] memory houseNames = [... */\n      mload(0x40)\n      dup1\n      0x0280\n      add\n      0x40\n      mstore\n      dup1\n      mload(0x40)\n      dup1\n      0x40\n      add\n      0x40\n      mstore\n      dup1\n      0x09\n      dup2\n      mstore\n      0x20\n      add\n      0x54617267617279656e0000000000000000000000000000000000000000000000\n      dup2\n      mstore\n      pop\n      dup2\n      mstore\n      0x20\n      add\n      mload(0x40)\n      dup1\n      0x40\n      add\n      0x40\n      mstore\n      dup1\n      0x09\n      dup2\n      mstore\n      0x20\n      add\n      0x4c616e6e69737465720000000000000000000000000000000000000000000000\n      dup2\n      mstore\n      pop\n      dup2\n      mstore\n      0x20\n      add\n      mload(0x40)\n      dup1\n      0x40\n      add\n      0x40\n      mstore\n      dup1\n      0x05\n      dup2\n      mstore\n      0x20\n      add\n      0x537461726b000000000000000000000000000000000000000000000000000000\n      dup2\n      mstore\n      pop\n      dup2\n      mstore\n      0x20\n      add\n      mload(0x40)\n      dup1\n      0x40\n      add\n      0x40\n      mstore\n      dup1\n      0x06\n      dup2\n      mstore\n      0x20\n      add\n      0x547972656c6c0000000000000000000000000000000000000000000000000000\n      dup2\n      mstore\n      pop\n      dup2\n      mstore\n      0x20\n      add\n      mload(0x40)\n      dup1\n      0x40\n      add\n      0x40\n      mstore\n      dup1\n      0x09\n      dup2\n      mstore\n      0x20\n      add\n      0x426172617468656f6e0000000000000000000000000000000000000000000000\n      dup2\n      mstore\n      pop\n      dup2\n      mstore\n      0x20\n      add\n      mload(0x40)\n      dup1\n      0x40\n      add\n      0x40\n      mstore\n      dup1\n      0x07\n      dup2\n      mstore\n      0x20\n      add\n      0x4d617274656c6c00000000000000000000000000000000000000000000000000\n      dup2\n      mstore\n      pop\n      dup2\n      mstore\n      0x20\n      add\n      mload(0x40)\n      dup1\n      0x40\n      add\n      0x40\n      mstore\n      dup1\n      0x05\n      dup2\n      mstore\n      0x20\n      add\n      0x54756c6c79000000000000000000000000000000000000000000000000000000\n      dup2\n      mstore\n      pop\n      dup2\n      mstore\n      0x20\n      add\n      mload(0x40)\n      dup1\n      0x40\n      add\n      0x40\n      mstore\n      dup1\n      0x06\n      dup2\n      mstore\n      0x20\n      add\n      0x426f6c746f6e0000000000000000000000000000000000000000000000000000\n      dup2\n      mstore\n      pop\n      dup2\n      mstore\n      0x20\n      add\n      mload(0x40)\n      dup1\n      0x40\n      add\n      0x40\n      mstore\n      dup1\n      0x07\n      dup2\n      mstore\n      0x20\n      add\n      0x477265796a6f7900000000000000000000000000000000000000000000000000\n      dup2\n      mstore\n      pop\n      dup2\n      mstore\n      0x20\n      add\n      mload(0x40)\n      dup1\n      0x40\n      add\n      0x40\n      mstore\n      dup1\n      0x05\n      dup2\n      mstore\n      0x20\n      add\n      0x417272796e000000000000000000000000000000000000000000000000000000\n      dup2\n      mstore\n      pop\n      dup2\n      mstore\n      0x20\n      add\n      mload(0x40)\n      dup1\n      0x40\n      add\n      0x40\n      mstore\n      dup1\n      0x04\n      dup2\n      mstore\n      0x20\n      add\n      0x4672657900000000000000000000000000000000000000000000000000000000\n      dup2\n      mstore\n      pop\n      dup2\n      mstore\n      0x20\n      add\n      mload(0x40)\n      dup1\n      0x40\n      add\n      0x40\n      mstore\n      dup1\n      0x07\n      dup2\n      mstore\n      0x20\n      add\n      0x4d6f726d6f6e7400000000000000000000000000000000000000000000000000\n      dup2\n      mstore\n      pop\n      dup2\n      mstore\n      0x20\n      add\n      mload(0x40)\n      dup1\n      0x40\n      add\n      0x40\n      mstore\n      dup1\n      0x06\n      dup2\n      mstore\n      0x20\n      add\n      0x5461726c65790000000000000000000000000000000000000000000000000000\n      dup2\n      mstore\n      pop\n      dup2\n      mstore\n      0x20\n      add\n      mload(0x40)\n      dup1\n      0x40\n      add\n      0x40\n      mstore\n      dup1\n      0x05\n      dup2\n      mstore\n      0x20\n      add\n      0x4461796e65000000000000000000000000000000000000000000000000000000\n      dup2\n      mstore\n      pop\n      dup2\n      mstore\n      0x20\n      add\n      mload(0x40)\n      dup1\n      0x40\n      add\n      0x40\n      mstore\n      dup1\n      0x05\n      dup2\n      mstore\n      0x20\n      add\n      0x556d626572000000000000000000000000000000000000000000000000000000\n      dup2\n      mstore\n      pop\n      dup2\n      mstore\n      0x20\n      add\n      mload(0x40)\n      dup1\n      0x40\n      add\n      0x40\n      mstore\n      dup1\n      0x08\n      dup2\n      mstore\n      0x20\n      add\n      0x56616c6572796f6e000000000000000000000000000000000000000000000000\n      dup2\n      mstore\n      pop\n      dup2\n      mstore\n      0x20\n      add\n      mload(0x40)\n      dup1\n      0x40\n      add\n      0x40\n      mstore\n      dup1\n      0x08\n      dup2\n      mstore\n      0x20\n      add\n      0x4d616e6465726c79000000000000000000000000000000000000000000000000\n      dup2\n      mstore\n      pop\n      dup2\n      mstore\n      0x20\n      add\n      mload(0x40)\n      dup1\n      0x40\n      add\n      0x40\n      mstore\n      dup1\n      0x07\n      dup2\n      mstore\n      0x20\n      add\n      0x436c6567616e6500000000000000000000000000000000000000000000000000\n      dup2\n      mstore\n      pop\n      dup2\n      mstore\n      0x20\n      add\n      mload(0x40)\n      dup1\n      0x40\n      add\n      0x40\n      mstore\n      dup1\n      0x06\n      dup2\n      mstore\n      0x20\n      add\n      0x476c6f7665720000000000000000000000000000000000000000000000000000\n      dup2\n      mstore\n      pop\n      dup2\n      mstore\n      0x20\n      add\n      mload(0x40)\n      dup1\n      0x40\n      add\n      0x40\n      mstore\n      dup1\n      0x08\n      dup2\n      mstore\n      0x20\n      add\n      0x4b6172737461726b000000000000000000000000000000000000000000000000\n      dup2\n      mstore\n      pop\n      dup2\n      mstore\n      pop\n      swap1\n      pop\n        /* \"docs.chain.link/samples/VRF/VRFD20.sol\":5738:5748  houseNames */\n      dup1\n        /* \"docs.chain.link/samples/VRF/VRFD20.sol\":5754:5755  1 */\n      0x01\n        /* \"docs.chain.link/samples/VRF/VRFD20.sol\":5749:5751  id */\n      dup5\n        /* \"docs.chain.link/samples/VRF/VRFD20.sol\":5749:5755  id - 1 */\n      tag_58\n      swap2\n      swap1\n      tag_59\n      jump\t// in\n    tag_58:\n        /* \"docs.chain.link/samples/VRF/VRFD20.sol\":5738:5756  houseNames[id - 1] */\n      0x14\n      dup2\n      lt\n      tag_60\n      jumpi\n      tag_61\n      tag_52\n      jump\t// in\n    tag_61:\n    tag_60:\n      0x20\n      mul\n      add\n      mload\n        /* \"docs.chain.link/samples/VRF/VRFD20.sol\":5731:5756  return houseNames[id - 1] */\n      swap2\n      pop\n      pop\n        /* \"docs.chain.link/samples/VRF/VRFD20.sol\":5147:5763  function getHouseName(uint256 id) private pure returns (string memory) {... */\n      swap2\n      swap1\n      pop\n      jump\t// out\n        /* \"#utility.yul\":24:746   */\n    tag_63:\n        /* \"#utility.yul\":120:125   */\n      0x00\n        /* \"#utility.yul\":145:226   */\n      tag_65\n        /* \"#utility.yul\":161:225   */\n      tag_66\n        /* \"#utility.yul\":218:224   */\n      dup5\n        /* \"#utility.yul\":161:225   */\n      tag_67\n      jump\t// in\n    tag_66:\n        /* \"#utility.yul\":145:226   */\n      tag_68\n      jump\t// in\n    tag_65:\n        /* \"#utility.yul\":136:226   */\n      swap1\n      pop\n        /* \"#utility.yul\":246:251   */\n      dup1\n        /* \"#utility.yul\":275:281   */\n      dup4\n        /* \"#utility.yul\":268:273   */\n      dup3\n        /* \"#utility.yul\":261:282   */\n      mstore\n        /* \"#utility.yul\":309:313   */\n      0x20\n        /* \"#utility.yul\":302:307   */\n      dup3\n        /* \"#utility.yul\":298:314   */\n      add\n        /* \"#utility.yul\":291:314   */\n      swap1\n      pop\n        /* \"#utility.yul\":335:341   */\n      dup3\n        /* \"#utility.yul\":385:388   */\n      dup6\n        /* \"#utility.yul\":377:381   */\n      0x20\n        /* \"#utility.yul\":369:375   */\n      dup7\n        /* \"#utility.yul\":365:382   */\n      mul\n        /* \"#utility.yul\":360:363   */\n      dup3\n        /* \"#utility.yul\":356:383   */\n      add\n        /* \"#utility.yul\":353:389   */\n      gt\n        /* \"#utility.yul\":350:493   */\n      iszero\n      tag_69\n      jumpi\n        /* \"#utility.yul\":404:483   */\n      tag_70\n      tag_71\n      jump\t// in\n    tag_70:\n        /* \"#utility.yul\":350:493   */\n    tag_69:\n        /* \"#utility.yul\":517:518   */\n      0x00\n        /* \"#utility.yul\":502:740   */\n    tag_72:\n        /* \"#utility.yul\":527:533   */\n      dup6\n        /* \"#utility.yul\":524:525   */\n      dup2\n        /* \"#utility.yul\":521:534   */\n      lt\n        /* \"#utility.yul\":502:740   */\n      iszero\n      tag_74\n      jumpi\n        /* \"#utility.yul\":595:598   */\n      dup2\n        /* \"#utility.yul\":624:661   */\n      tag_75\n        /* \"#utility.yul\":657:660   */\n      dup9\n        /* \"#utility.yul\":645:655   */\n      dup3\n        /* \"#utility.yul\":624:661   */\n      tag_76\n      jump\t// in\n    tag_75:\n        /* \"#utility.yul\":619:622   */\n      dup5\n        /* \"#utility.yul\":612:662   */\n      mstore\n        /* \"#utility.yul\":691:695   */\n      0x20\n        /* \"#utility.yul\":686:689   */\n      dup5\n        /* \"#utility.yul\":682:696   */\n      add\n        /* \"#utility.yul\":675:696   */\n      swap4\n      pop\n        /* \"#utility.yul\":725:729   */\n      0x20\n        /* \"#utility.yul\":720:723   */\n      dup4\n        /* \"#utility.yul\":716:730   */\n      add\n        /* \"#utility.yul\":709:730   */\n      swap3\n      pop\n        /* \"#utility.yul\":562:740   */\n      pop\n        /* \"#utility.yul\":549:550   */\n      0x01\n        /* \"#utility.yul\":546:547   */\n      dup2\n        /* \"#utility.yul\":542:551   */\n      add\n        /* \"#utility.yul\":537:551   */\n      swap1\n      pop\n        /* \"#utility.yul\":502:740   */\n      jump(tag_72)\n    tag_74:\n        /* \"#utility.yul\":506:520   */\n      pop\n        /* \"#utility.yul\":126:746   */\n      pop\n      pop\n        /* \"#utility.yul\":24:746   */\n      swap4\n      swap3\n      pop\n      pop\n      pop\n      jump\t// out\n        /* \"#utility.yul\":752:891   */\n    tag_77:\n        /* \"#utility.yul\":798:803   */\n      0x00\n        /* \"#utility.yul\":836:842   */\n      dup2\n        /* \"#utility.yul\":823:843   */\n      calldataload\n        /* \"#utility.yul\":814:843   */\n      swap1\n      pop\n        /* \"#utility.yul\":852:885   */\n      tag_79\n        /* \"#utility.yul\":879:884   */\n      dup2\n        /* \"#utility.yul\":852:885   */\n      tag_80\n      jump\t// in\n    tag_79:\n        /* \"#utility.yul\":752:891   */\n      swap3\n      swap2\n      pop\n      pop\n      jump\t// out\n        /* \"#utility.yul\":914:1284   */\n    tag_81:\n        /* \"#utility.yul\":985:990   */\n      0x00\n        /* \"#utility.yul\":1034:1037   */\n      dup3\n        /* \"#utility.yul\":1027:1031   */\n      0x1f\n        /* \"#utility.yul\":1019:1025   */\n      dup4\n        /* \"#utility.yul\":1015:1032   */\n      add\n        /* \"#utility.yul\":1011:1038   */\n      slt\n        /* \"#utility.yul\":1001:1123   */\n      tag_83\n      jumpi\n        /* \"#utility.yul\":1042:1121   */\n      tag_84\n      tag_85\n      jump\t// in\n    tag_84:\n        /* \"#utility.yul\":1001:1123   */\n    tag_83:\n        /* \"#utility.yul\":1159:1165   */\n      dup2\n        /* \"#utility.yul\":1146:1166   */\n      calldataload\n        /* \"#utility.yul\":1184:1278   */\n      tag_86\n        /* \"#utility.yul\":1274:1277   */\n      dup5\n        /* \"#utility.yul\":1266:1272   */\n      dup3\n        /* \"#utility.yul\":1259:1263   */\n      0x20\n        /* \"#utility.yul\":1251:1257   */\n      dup7\n        /* \"#utility.yul\":1247:1264   */\n      add\n        /* \"#utility.yul\":1184:1278   */\n      tag_63\n      jump\t// in\n    tag_86:\n        /* \"#utility.yul\":1175:1278   */\n      swap2\n      pop\n        /* \"#utility.yul\":991:1284   */\n      pop\n        /* \"#utility.yul\":914:1284   */\n      swap3\n      swap2\n      pop\n      pop\n      jump\t// out\n        /* \"#utility.yul\":1290:1429   */\n    tag_76:\n        /* \"#utility.yul\":1336:1341   */\n      0x00\n        /* \"#utility.yul\":1374:1380   */\n      dup2\n        /* \"#utility.yul\":1361:1381   */\n      calldataload\n        /* \"#utility.yul\":1352:1381   */\n      swap1\n      pop\n        /* \"#utility.yul\":1390:1423   */\n      tag_88\n        /* \"#utility.yul\":1417:1422   */\n      dup2\n        /* \"#utility.yul\":1390:1423   */\n      tag_89\n      jump\t// in\n    tag_88:\n        /* \"#utility.yul\":1290:1429   */\n      swap3\n      swap2\n      pop\n      pop\n      jump\t// out\n        /* \"#utility.yul\":1435:1578   */\n    tag_90:\n        /* \"#utility.yul\":1492:1497   */\n      0x00\n        /* \"#utility.yul\":1523:1529   */\n      dup2\n        /* \"#utility.yul\":1517:1530   */\n      mload\n        /* \"#utility.yul\":1508:1530   */\n      swap1\n      pop\n        /* \"#utility.yul\":1539:1572   */\n      tag_92\n        /* \"#utility.yul\":1566:1571   */\n      dup2\n        /* \"#utility.yul\":1539:1572   */\n      tag_89\n      jump\t// in\n    tag_92:\n        /* \"#utility.yul\":1435:1578   */\n      swap3\n      swap2\n      pop\n      pop\n      jump\t// out\n        /* \"#utility.yul\":1584:1913   */\n    tag_12:\n        /* \"#utility.yul\":1643:1649   */\n      0x00\n        /* \"#utility.yul\":1692:1694   */\n      0x20\n        /* \"#utility.yul\":1680:1689   */\n      dup3\n        /* \"#utility.yul\":1671:1678   */\n      dup5\n        /* \"#utility.yul\":1667:1690   */\n      sub\n        /* \"#utility.yul\":1663:1695   */\n      slt\n        /* \"#utility.yul\":1660:1779   */\n      iszero\n      tag_94\n      jumpi\n        /* \"#utility.yul\":1698:1777   */\n      tag_95\n      tag_96\n      jump\t// in\n    tag_95:\n        /* \"#utility.yul\":1660:1779   */\n    tag_94:\n        /* \"#utility.yul\":1818:1819   */\n      0x00\n        /* \"#utility.yul\":1843:1896   */\n      tag_97\n        /* \"#utility.yul\":1888:1895   */\n      dup5\n        /* \"#utility.yul\":1879:1885   */\n      dup3\n        /* \"#utility.yul\":1868:1877   */\n      dup6\n        /* \"#utility.yul\":1864:1886   */\n      add\n        /* \"#utility.yul\":1843:1896   */\n      tag_77\n      jump\t// in\n    tag_97:\n        /* \"#utility.yul\":1833:1896   */\n      swap2\n      pop\n        /* \"#utility.yul\":1789:1906   */\n      pop\n        /* \"#utility.yul\":1584:1913   */\n      swap3\n      swap2\n      pop\n      pop\n      jump\t// out\n        /* \"#utility.yul\":1919:2270   */\n    tag_48:\n        /* \"#utility.yul\":1989:1995   */\n      0x00\n        /* \"#utility.yul\":2038:2040   */\n      0x20\n        /* \"#utility.yul\":2026:2035   */\n      dup3\n        /* \"#utility.yul\":2017:2024   */\n      dup5\n        /* \"#utility.yul\":2013:2036   */\n      sub\n        /* \"#utility.yul\":2009:2041   */\n      slt\n        /* \"#utility.yul\":2006:2125   */\n      iszero\n      tag_99\n      jumpi\n        /* \"#utility.yul\":2044:2123   */\n      tag_100\n      tag_96\n      jump\t// in\n    tag_100:\n        /* \"#utility.yul\":2006:2125   */\n    tag_99:\n        /* \"#utility.yul\":2164:2165   */\n      0x00\n        /* \"#utility.yul\":2189:2253   */\n      tag_101\n        /* \"#utility.yul\":2245:2252   */\n      dup5\n        /* \"#utility.yul\":2236:2242   */\n      dup3\n        /* \"#utility.yul\":2225:2234   */\n      dup6\n        /* \"#utility.yul\":2221:2243   */\n      add\n        /* \"#utility.yul\":2189:2253   */\n      tag_90\n      jump\t// in\n    tag_101:\n        /* \"#utility.yul\":2179:2253   */\n      swap2\n      pop\n        /* \"#utility.yul\":2135:2263   */\n      pop\n        /* \"#utility.yul\":1919:2270   */\n      swap3\n      swap2\n      pop\n      pop\n      jump\t// out\n        /* \"#utility.yul\":2276:2960   */\n    tag_8:\n        /* \"#utility.yul\":2369:2375   */\n      0x00\n        /* \"#utility.yul\":2377:2383   */\n      dup1\n        /* \"#utility.yul\":2426:2428   */\n      0x40\n        /* \"#utility.yul\":2414:2423   */\n      dup4\n        /* \"#utility.yul\":2405:2412   */\n      dup6\n        /* \"#utility.yul\":2401:2424   */\n      sub\n        /* \"#utility.yul\":2397:2429   */\n      slt\n        /* \"#utility.yul\":2394:2513   */\n      iszero\n      tag_103\n      jumpi\n        /* \"#utility.yul\":2432:2511   */\n      tag_104\n      tag_96\n      jump\t// in\n    tag_104:\n        /* \"#utility.yul\":2394:2513   */\n    tag_103:\n        /* \"#utility.yul\":2552:2553   */\n      0x00\n        /* \"#utility.yul\":2577:2630   */\n      tag_105\n        /* \"#utility.yul\":2622:2629   */\n      dup6\n        /* \"#utility.yul\":2613:2619   */\n      dup3\n        /* \"#utility.yul\":2602:2611   */\n      dup7\n        /* \"#utility.yul\":2598:2620   */\n      add\n        /* \"#utility.yul\":2577:2630   */\n      tag_76\n      jump\t// in\n    tag_105:\n        /* \"#utility.yul\":2567:2630   */\n      swap3\n      pop\n        /* \"#utility.yul\":2523:2640   */\n      pop\n        /* \"#utility.yul\":2707:2709   */\n      0x20\n        /* \"#utility.yul\":2696:2705   */\n      dup4\n        /* \"#utility.yul\":2692:2710   */\n      add\n        /* \"#utility.yul\":2679:2711   */\n      calldataload\n        /* \"#utility.yul\":2738:2756   */\n      0xffffffffffffffff\n        /* \"#utility.yul\":2730:2736   */\n      dup2\n        /* \"#utility.yul\":2727:2757   */\n      gt\n        /* \"#utility.yul\":2724:2841   */\n      iszero\n      tag_106\n      jumpi\n        /* \"#utility.yul\":2760:2839   */\n      tag_107\n      tag_108\n      jump\t// in\n    tag_107:\n        /* \"#utility.yul\":2724:2841   */\n    tag_106:\n        /* \"#utility.yul\":2865:2943   */\n      tag_109\n        /* \"#utility.yul\":2935:2942   */\n      dup6\n        /* \"#utility.yul\":2926:2932   */\n      dup3\n        /* \"#utility.yul\":2915:2924   */\n      dup7\n        /* \"#utility.yul\":2911:2933   */\n      add\n        /* \"#utility.yul\":2865:2943   */\n      tag_81\n      jump\t// in\n    tag_109:\n        /* \"#utility.yul\":2855:2943   */\n      swap2\n      pop\n        /* \"#utility.yul\":2650:2953   */\n      pop\n        /* \"#utility.yul\":2276:2960   */\n      swap3\n      pop\n      swap3\n      swap1\n      pop\n      jump\t// out\n        /* \"#utility.yul\":2966:3084   */\n    tag_110:\n        /* \"#utility.yul\":3053:3077   */\n      tag_112\n        /* \"#utility.yul\":3071:3076   */\n      dup2\n        /* \"#utility.yul\":3053:3077   */\n      tag_113\n      jump\t// in\n    tag_112:\n        /* \"#utility.yul\":3048:3051   */\n      dup3\n        /* \"#utility.yul\":3041:3078   */\n      mstore\n        /* \"#utility.yul\":2966:3084   */\n      pop\n      pop\n      jump\t// out\n        /* \"#utility.yul\":3090:3208   */\n    tag_114:\n        /* \"#utility.yul\":3177:3201   */\n      tag_116\n        /* \"#utility.yul\":3195:3200   */\n      dup2\n        /* \"#utility.yul\":3177:3201   */\n      tag_117\n      jump\t// in\n    tag_116:\n        /* \"#utility.yul\":3172:3175   */\n      dup3\n        /* \"#utility.yul\":3165:3202   */\n      mstore\n        /* \"#utility.yul\":3090:3208   */\n      pop\n      pop\n      jump\t// out\n        /* \"#utility.yul\":3214:3578   */\n    tag_118:\n        /* \"#utility.yul\":3302:3305   */\n      0x00\n        /* \"#utility.yul\":3330:3369   */\n      tag_120\n        /* \"#utility.yul\":3363:3368   */\n      dup3\n        /* \"#utility.yul\":3330:3369   */\n      tag_121\n      jump\t// in\n    tag_120:\n        /* \"#utility.yul\":3385:3456   */\n      tag_122\n        /* \"#utility.yul\":3449:3455   */\n      dup2\n        /* \"#utility.yul\":3444:3447   */\n      dup6\n        /* \"#utility.yul\":3385:3456   */\n      tag_123\n      jump\t// in\n    tag_122:\n        /* \"#utility.yul\":3378:3456   */\n      swap4\n      pop\n        /* \"#utility.yul\":3465:3517   */\n      tag_124\n        /* \"#utility.yul\":3510:3516   */\n      dup2\n        /* \"#utility.yul\":3505:3508   */\n      dup6\n        /* \"#utility.yul\":3498:3502   */\n      0x20\n        /* \"#utility.yul\":3491:3496   */\n      dup7\n        /* \"#utility.yul\":3487:3503   */\n      add\n        /* \"#utility.yul\":3465:3517   */\n      tag_125\n      jump\t// in\n    tag_124:\n        /* \"#utility.yul\":3542:3571   */\n      tag_126\n        /* \"#utility.yul\":3564:3570   */\n      dup2\n        /* \"#utility.yul\":3542:3571   */\n      tag_127\n      jump\t// in\n    tag_126:\n        /* \"#utility.yul\":3537:3540   */\n      dup5\n        /* \"#utility.yul\":3533:3572   */\n      add\n        /* \"#utility.yul\":3526:3572   */\n      swap2\n      pop\n        /* \"#utility.yul\":3306:3578   */\n      pop\n        /* \"#utility.yul\":3214:3578   */\n      swap3\n      swap2\n      pop\n      pop\n      jump\t// out\n        /* \"#utility.yul\":3584:3950   */\n    tag_128:\n        /* \"#utility.yul\":3726:3729   */\n      0x00\n        /* \"#utility.yul\":3747:3814   */\n      tag_130\n        /* \"#utility.yul\":3811:3813   */\n      0x10\n        /* \"#utility.yul\":3806:3809   */\n      dup4\n        /* \"#utility.yul\":3747:3814   */\n      tag_123\n      jump\t// in\n    tag_130:\n        /* \"#utility.yul\":3740:3814   */\n      swap2\n      pop\n        /* \"#utility.yul\":3823:3916   */\n      tag_131\n        /* \"#utility.yul\":3912:3915   */\n      dup3\n        /* \"#utility.yul\":3823:3916   */\n      tag_132\n      jump\t// in\n    tag_131:\n        /* \"#utility.yul\":3941:3943   */\n      0x20\n        /* \"#utility.yul\":3936:3939   */\n      dup3\n        /* \"#utility.yul\":3932:3944   */\n      add\n        /* \"#utility.yul\":3925:3944   */\n      swap1\n      pop\n        /* \"#utility.yul\":3584:3950   */\n      swap2\n      swap1\n      pop\n      jump\t// out\n        /* \"#utility.yul\":3956:4322   */\n    tag_133:\n        /* \"#utility.yul\":4098:4101   */\n      0x00\n        /* \"#utility.yul\":4119:4186   */\n      tag_135\n        /* \"#utility.yul\":4183:4185   */\n      0x0f\n        /* \"#utility.yul\":4178:4181   */\n      dup4\n        /* \"#utility.yul\":4119:4186   */\n      tag_123\n      jump\t// in\n    tag_135:\n        /* \"#utility.yul\":4112:4186   */\n      swap2\n      pop\n        /* \"#utility.yul\":4195:4288   */\n      tag_136\n        /* \"#utility.yul\":4284:4287   */\n      dup3\n        /* \"#utility.yul\":4195:4288   */\n      tag_137\n      jump\t// in\n    tag_136:\n        /* \"#utility.yul\":4313:4315   */\n      0x20\n        /* \"#utility.yul\":4308:4311   */\n      dup3\n        /* \"#utility.yul\":4304:4316   */\n      add\n        /* \"#utility.yul\":4297:4316   */\n      swap1\n      pop\n        /* \"#utility.yul\":3956:4322   */\n      swap2\n      swap1\n      pop\n      jump\t// out\n        /* \"#utility.yul\":4328:4694   */\n    tag_138:\n        /* \"#utility.yul\":4470:4473   */\n      0x00\n        /* \"#utility.yul\":4491:4558   */\n      tag_140\n        /* \"#utility.yul\":4555:4557   */\n      0x0e\n        /* \"#utility.yul\":4550:4553   */\n      dup4\n        /* \"#utility.yul\":4491:4558   */\n      tag_123\n      jump\t// in\n    tag_140:\n        /* \"#utility.yul\":4484:4558   */\n      swap2\n      pop\n        /* \"#utility.yul\":4567:4660   */\n      tag_141\n        /* \"#utility.yul\":4656:4659   */\n      dup3\n        /* \"#utility.yul\":4567:4660   */\n      tag_142\n      jump\t// in\n    tag_141:\n        /* \"#utility.yul\":4685:4687   */\n      0x20\n        /* \"#utility.yul\":4680:4683   */\n      dup3\n        /* \"#utility.yul\":4676:4688   */\n      add\n        /* \"#utility.yul\":4669:4688   */\n      swap1\n      pop\n        /* \"#utility.yul\":4328:4694   */\n      swap2\n      swap1\n      pop\n      jump\t// out\n        /* \"#utility.yul\":4700:4815   */\n    tag_143:\n        /* \"#utility.yul\":4785:4808   */\n      tag_145\n        /* \"#utility.yul\":4802:4807   */\n      dup2\n        /* \"#utility.yul\":4785:4808   */\n      tag_146\n      jump\t// in\n    tag_145:\n        /* \"#utility.yul\":4780:4783   */\n      dup3\n        /* \"#utility.yul\":4773:4809   */\n      mstore\n        /* \"#utility.yul\":4700:4815   */\n      pop\n      pop\n      jump\t// out\n        /* \"#utility.yul\":4821:4939   */\n    tag_147:\n        /* \"#utility.yul\":4908:4932   */\n      tag_149\n        /* \"#utility.yul\":4926:4931   */\n      dup2\n        /* \"#utility.yul\":4908:4932   */\n      tag_150\n      jump\t// in\n    tag_149:\n        /* \"#utility.yul\":4903:4906   */\n      dup3\n        /* \"#utility.yul\":4896:4933   */\n      mstore\n        /* \"#utility.yul\":4821:4939   */\n      pop\n      pop\n      jump\t// out\n        /* \"#utility.yul\":4945:5060   */\n    tag_151:\n        /* \"#utility.yul\":5030:5053   */\n      tag_153\n        /* \"#utility.yul\":5047:5052   */\n      dup2\n        /* \"#utility.yul\":5030:5053   */\n      tag_154\n      jump\t// in\n    tag_153:\n        /* \"#utility.yul\":5025:5028   */\n      dup3\n        /* \"#utility.yul\":5018:5054   */\n      mstore\n        /* \"#utility.yul\":4945:5060   */\n      pop\n      pop\n      jump\t// out\n        /* \"#utility.yul\":5066:5181   */\n    tag_155:\n        /* \"#utility.yul\":5151:5174   */\n      tag_157\n        /* \"#utility.yul\":5168:5173   */\n      dup2\n        /* \"#utility.yul\":5151:5174   */\n      tag_158\n      jump\t// in\n    tag_157:\n        /* \"#utility.yul\":5146:5149   */\n      dup3\n        /* \"#utility.yul\":5139:5175   */\n      mstore\n        /* \"#utility.yul\":5066:5181   */\n      pop\n      pop\n      jump\t// out\n        /* \"#utility.yul\":5187:5519   */\n    tag_24:\n        /* \"#utility.yul\":5308:5312   */\n      0x00\n        /* \"#utility.yul\":5346:5348   */\n      0x40\n        /* \"#utility.yul\":5335:5344   */\n      dup3\n        /* \"#utility.yul\":5331:5349   */\n      add\n        /* \"#utility.yul\":5323:5349   */\n      swap1\n      pop\n        /* \"#utility.yul\":5359:5430   */\n      tag_160\n        /* \"#utility.yul\":5427:5428   */\n      0x00\n        /* \"#utility.yul\":5416:5425   */\n      dup4\n        /* \"#utility.yul\":5412:5429   */\n      add\n        /* \"#utility.yul\":5403:5409   */\n      dup6\n        /* \"#utility.yul\":5359:5430   */\n      tag_110\n      jump\t// in\n    tag_160:\n        /* \"#utility.yul\":5440:5512   */\n      tag_161\n        /* \"#utility.yul\":5508:5510   */\n      0x20\n        /* \"#utility.yul\":5497:5506   */\n      dup4\n        /* \"#utility.yul\":5493:5511   */\n      add\n        /* \"#utility.yul\":5484:5490   */\n      dup5\n        /* \"#utility.yul\":5440:5512   */\n      tag_110\n      jump\t// in\n    tag_161:\n        /* \"#utility.yul\":5187:5519   */\n      swap4\n      swap3\n      pop\n      pop\n      pop\n      jump\t// out\n        /* \"#utility.yul\":5525:6173   */\n    tag_43:\n        /* \"#utility.yul\":5722:5726   */\n      0x00\n        /* \"#utility.yul\":5760:5763   */\n      0xa0\n        /* \"#utility.yul\":5749:5758   */\n      dup3\n        /* \"#utility.yul\":5745:5764   */\n      add\n        /* \"#utility.yul\":5737:5764   */\n      swap1\n      pop\n        /* \"#utility.yul\":5774:5845   */\n      tag_163\n        /* \"#utility.yul\":5842:5843   */\n      0x00\n        /* \"#utility.yul\":5831:5840   */\n      dup4\n        /* \"#utility.yul\":5827:5844   */\n      add\n        /* \"#utility.yul\":5818:5824   */\n      dup9\n        /* \"#utility.yul\":5774:5845   */\n      tag_114\n      jump\t// in\n    tag_163:\n        /* \"#utility.yul\":5855:5925   */\n      tag_164\n        /* \"#utility.yul\":5921:5923   */\n      0x20\n        /* \"#utility.yul\":5910:5919   */\n      dup4\n        /* \"#utility.yul\":5906:5924   */\n      add\n        /* \"#utility.yul\":5897:5903   */\n      dup8\n        /* \"#utility.yul\":5855:5925   */\n      tag_155\n      jump\t// in\n    tag_164:\n        /* \"#utility.yul\":5935:6005   */\n      tag_165\n        /* \"#utility.yul\":6001:6003   */\n      0x40\n        /* \"#utility.yul\":5990:5999   */\n      dup4\n        /* \"#utility.yul\":5986:6004   */\n      add\n        /* \"#utility.yul\":5977:5983   */\n      dup7\n        /* \"#utility.yul\":5935:6005   */\n      tag_143\n      jump\t// in\n    tag_165:\n        /* \"#utility.yul\":6015:6085   */\n      tag_166\n        /* \"#utility.yul\":6081:6083   */\n      0x60\n        /* \"#utility.yul\":6070:6079   */\n      dup4\n        /* \"#utility.yul\":6066:6084   */\n      add\n        /* \"#utility.yul\":6057:6063   */\n      dup6\n        /* \"#utility.yul\":6015:6085   */\n      tag_151\n      jump\t// in\n    tag_166:\n        /* \"#utility.yul\":6095:6166   */\n      tag_167\n        /* \"#utility.yul\":6161:6164   */\n      0x80\n        /* \"#utility.yul\":6150:6159   */\n      dup4\n        /* \"#utility.yul\":6146:6165   */\n      add\n        /* \"#utility.yul\":6137:6143   */\n      dup5\n        /* \"#utility.yul\":6095:6166   */\n      tag_151\n      jump\t// in\n    tag_167:\n        /* \"#utility.yul\":5525:6173   */\n      swap7\n      swap6\n      pop\n      pop\n      pop\n      pop\n      pop\n      pop\n      jump\t// out\n        /* \"#utility.yul\":6179:6492   */\n    tag_15:\n        /* \"#utility.yul\":6292:6296   */\n      0x00\n        /* \"#utility.yul\":6330:6332   */\n      0x20\n        /* \"#utility.yul\":6319:6328   */\n      dup3\n        /* \"#utility.yul\":6315:6333   */\n      add\n        /* \"#utility.yul\":6307:6333   */\n      swap1\n      pop\n        /* \"#utility.yul\":6379:6388   */\n      dup2\n        /* \"#utility.yul\":6373:6377   */\n      dup2\n        /* \"#utility.yul\":6369:6389   */\n      sub\n        /* \"#utility.yul\":6365:6366   */\n      0x00\n        /* \"#utility.yul\":6354:6363   */\n      dup4\n        /* \"#utility.yul\":6350:6367   */\n      add\n        /* \"#utility.yul\":6343:6390   */\n      mstore\n        /* \"#utility.yul\":6407:6485   */\n      tag_169\n        /* \"#utility.yul\":6480:6484   */\n      dup2\n        /* \"#utility.yul\":6471:6477   */\n      dup5\n        /* \"#utility.yul\":6407:6485   */\n      tag_118\n      jump\t// in\n    tag_169:\n        /* \"#utility.yul\":6399:6485   */\n      swap1\n      pop\n        /* \"#utility.yul\":6179:6492   */\n      swap3\n      swap2\n      pop\n      pop\n      jump\t// out\n        /* \"#utility.yul\":6498:6917   */\n    tag_33:\n        /* \"#utility.yul\":6664:6668   */\n      0x00\n        /* \"#utility.yul\":6702:6704   */\n      0x20\n        /* \"#utility.yul\":6691:6700   */\n      dup3\n        /* \"#utility.yul\":6687:6705   */\n      add\n        /* \"#utility.yul\":6679:6705   */\n      swap1\n      pop\n        /* \"#utility.yul\":6751:6760   */\n      dup2\n        /* \"#utility.yul\":6745:6749   */\n      dup2\n        /* \"#utility.yul\":6741:6761   */\n      sub\n        /* \"#utility.yul\":6737:6738   */\n      0x00\n        /* \"#utility.yul\":6726:6735   */\n      dup4\n        /* \"#utility.yul\":6722:6739   */\n      add\n        /* \"#utility.yul\":6715:6762   */\n      mstore\n        /* \"#utility.yul\":6779:6910   */\n      tag_171\n        /* \"#utility.yul\":6905:6909   */\n      dup2\n        /* \"#utility.yul\":6779:6910   */\n      tag_128\n      jump\t// in\n    tag_171:\n        /* \"#utility.yul\":6771:6910   */\n      swap1\n      pop\n        /* \"#utility.yul\":6498:6917   */\n      swap2\n      swap1\n      pop\n      jump\t// out\n        /* \"#utility.yul\":6923:7342   */\n    tag_30:\n        /* \"#utility.yul\":7089:7093   */\n      0x00\n        /* \"#utility.yul\":7127:7129   */\n      0x20\n        /* \"#utility.yul\":7116:7125   */\n      dup3\n        /* \"#utility.yul\":7112:7130   */\n      add\n        /* \"#utility.yul\":7104:7130   */\n      swap1\n      pop\n        /* \"#utility.yul\":7176:7185   */\n      dup2\n        /* \"#utility.yul\":7170:7174   */\n      dup2\n        /* \"#utility.yul\":7166:7186   */\n      sub\n        /* \"#utility.yul\":7162:7163   */\n      0x00\n        /* \"#utility.yul\":7151:7160   */\n      dup4\n        /* \"#utility.yul\":7147:7164   */\n      add\n        /* \"#utility.yul\":7140:7187   */\n      mstore\n        /* \"#utility.yul\":7204:7335   */\n      tag_173\n        /* \"#utility.yul\":7330:7334   */\n      dup2\n        /* \"#utility.yul\":7204:7335   */\n      tag_133\n      jump\t// in\n    tag_173:\n        /* \"#utility.yul\":7196:7335   */\n      swap1\n      pop\n        /* \"#utility.yul\":6923:7342   */\n      swap2\n      swap1\n      pop\n      jump\t// out\n        /* \"#utility.yul\":7348:7767   */\n    tag_41:\n        /* \"#utility.yul\":7514:7518   */\n      0x00\n        /* \"#utility.yul\":7552:7554   */\n      0x20\n        /* \"#utility.yul\":7541:7550   */\n      dup3\n        /* \"#utility.yul\":7537:7555   */\n      add\n        /* \"#utility.yul\":7529:7555   */\n      swap1\n      pop\n        /* \"#utility.yul\":7601:7610   */\n      dup2\n        /* \"#utility.yul\":7595:7599   */\n      dup2\n        /* \"#utility.yul\":7591:7611   */\n      sub\n        /* \"#utility.yul\":7587:7588   */\n      0x00\n        /* \"#utility.yul\":7576:7585   */\n      dup4\n        /* \"#utility.yul\":7572:7589   */\n      add\n        /* \"#utility.yul\":7565:7612   */\n      mstore\n        /* \"#utility.yul\":7629:7760   */\n      tag_175\n        /* \"#utility.yul\":7755:7759   */\n      dup2\n        /* \"#utility.yul\":7629:7760   */\n      tag_138\n      jump\t// in\n    tag_175:\n        /* \"#utility.yul\":7621:7760   */\n      swap1\n      pop\n        /* \"#utility.yul\":7348:7767   */\n      swap2\n      swap1\n      pop\n      jump\t// out\n        /* \"#utility.yul\":7773:7995   */\n    tag_20:\n        /* \"#utility.yul\":7866:7870   */\n      0x00\n        /* \"#utility.yul\":7904:7906   */\n      0x20\n        /* \"#utility.yul\":7893:7902   */\n      dup3\n        /* \"#utility.yul\":7889:7907   */\n      add\n        /* \"#utility.yul\":7881:7907   */\n      swap1\n      pop\n        /* \"#utility.yul\":7917:7988   */\n      tag_177\n        /* \"#utility.yul\":7985:7986   */\n      0x00\n        /* \"#utility.yul\":7974:7983   */\n      dup4\n        /* \"#utility.yul\":7970:7987   */\n      add\n        /* \"#utility.yul\":7961:7967   */\n      dup5\n        /* \"#utility.yul\":7917:7988   */\n      tag_147\n      jump\t// in\n    tag_177:\n        /* \"#utility.yul\":7773:7995   */\n      swap3\n      swap2\n      pop\n      pop\n      jump\t// out\n        /* \"#utility.yul\":8001:8130   */\n    tag_68:\n        /* \"#utility.yul\":8035:8041   */\n      0x00\n        /* \"#utility.yul\":8062:8082   */\n      tag_179\n      tag_180\n      jump\t// in\n    tag_179:\n        /* \"#utility.yul\":8052:8082   */\n      swap1\n      pop\n        /* \"#utility.yul\":8091:8124   */\n      tag_181\n        /* \"#utility.yul\":8119:8123   */\n      dup3\n        /* \"#utility.yul\":8111:8117   */\n      dup3\n        /* \"#utility.yul\":8091:8124   */\n      tag_182\n      jump\t// in\n    tag_181:\n        /* \"#utility.yul\":8001:8130   */\n      swap2\n      swap1\n      pop\n      jump\t// out\n        /* \"#utility.yul\":8136:8211   */\n    tag_180:\n        /* \"#utility.yul\":8169:8175   */\n      0x00\n        /* \"#utility.yul\":8202:8204   */\n      0x40\n        /* \"#utility.yul\":8196:8205   */\n      mload\n        /* \"#utility.yul\":8186:8205   */\n      swap1\n      pop\n        /* \"#utility.yul\":8136:8211   */\n      swap1\n      jump\t// out\n        /* \"#utility.yul\":8217:8528   */\n    tag_67:\n        /* \"#utility.yul\":8294:8298   */\n      0x00\n        /* \"#utility.yul\":8384:8402   */\n      0xffffffffffffffff\n        /* \"#utility.yul\":8376:8382   */\n      dup3\n        /* \"#utility.yul\":8373:8403   */\n      gt\n        /* \"#utility.yul\":8370:8426   */\n      iszero\n      tag_185\n      jumpi\n        /* \"#utility.yul\":8406:8424   */\n      tag_186\n      tag_187\n      jump\t// in\n    tag_186:\n        /* \"#utility.yul\":8370:8426   */\n    tag_185:\n        /* \"#utility.yul\":8456:8460   */\n      0x20\n        /* \"#utility.yul\":8448:8454   */\n      dup3\n        /* \"#utility.yul\":8444:8461   */\n      mul\n        /* \"#utility.yul\":8436:8461   */\n      swap1\n      pop\n        /* \"#utility.yul\":8516:8520   */\n      0x20\n        /* \"#utility.yul\":8510:8514   */\n      dup2\n        /* \"#utility.yul\":8506:8521   */\n      add\n        /* \"#utility.yul\":8498:8521   */\n      swap1\n      pop\n        /* \"#utility.yul\":8217:8528   */\n      swap2\n      swap1\n      pop\n      jump\t// out\n        /* \"#utility.yul\":8534:8633   */\n    tag_121:\n        /* \"#utility.yul\":8586:8592   */\n      0x00\n        /* \"#utility.yul\":8620:8625   */\n      dup2\n        /* \"#utility.yul\":8614:8626   */\n      mload\n        /* \"#utility.yul\":8604:8626   */\n      swap1\n      pop\n        /* \"#utility.yul\":8534:8633   */\n      swap2\n      swap1\n      pop\n      jump\t// out\n        /* \"#utility.yul\":8639:8808   */\n    tag_123:\n        /* \"#utility.yul\":8723:8734   */\n      0x00\n        /* \"#utility.yul\":8757:8763   */\n      dup3\n        /* \"#utility.yul\":8752:8755   */\n      dup3\n        /* \"#utility.yul\":8745:8764   */\n      mstore\n        /* \"#utility.yul\":8797:8801   */\n      0x20\n        /* \"#utility.yul\":8792:8795   */\n      dup3\n        /* \"#utility.yul\":8788:8802   */\n      add\n        /* \"#utility.yul\":8773:8802   */\n      swap1\n      pop\n        /* \"#utility.yul\":8639:8808   */\n      swap3\n      swap2\n      pop\n      pop\n      jump\t// out\n        /* \"#utility.yul\":8814:9119   */\n    tag_56:\n        /* \"#utility.yul\":8854:8857   */\n      0x00\n        /* \"#utility.yul\":8873:8893   */\n      tag_191\n        /* \"#utility.yul\":8891:8892   */\n      dup3\n        /* \"#utility.yul\":8873:8893   */\n      tag_150\n      jump\t// in\n    tag_191:\n        /* \"#utility.yul\":8868:8893   */\n      swap2\n      pop\n        /* \"#utility.yul\":8907:8927   */\n      tag_192\n        /* \"#utility.yul\":8925:8926   */\n      dup4\n        /* \"#utility.yul\":8907:8927   */\n      tag_150\n      jump\t// in\n    tag_192:\n        /* \"#utility.yul\":8902:8927   */\n      swap3\n      pop\n        /* \"#utility.yul\":9061:9062   */\n      dup3\n        /* \"#utility.yul\":8993:9059   */\n      0xffffffffffffffffffffffffffffffffffffffffffffffffffffffffffffffff\n        /* \"#utility.yul\":8989:9063   */\n      sub\n        /* \"#utility.yul\":8986:8987   */\n      dup3\n        /* \"#utility.yul\":8983:9064   */\n      gt\n        /* \"#utility.yul\":8980:9087   */\n      iszero\n      tag_193\n      jumpi\n        /* \"#utility.yul\":9067:9085   */\n      tag_194\n      tag_195\n      jump\t// in\n    tag_194:\n        /* \"#utility.yul\":8980:9087   */\n    tag_193:\n        /* \"#utility.yul\":9111:9112   */\n      dup3\n        /* \"#utility.yul\":9108:9109   */\n      dup3\n        /* \"#utility.yul\":9104:9113   */\n      add\n        /* \"#utility.yul\":9097:9113   */\n      swap1\n      pop\n        /* \"#utility.yul\":8814:9119   */\n      swap3\n      swap2\n      pop\n      pop\n      jump\t// out\n        /* \"#utility.yul\":9125:9316   */\n    tag_59:\n        /* \"#utility.yul\":9165:9169   */\n      0x00\n        /* \"#utility.yul\":9185:9205   */\n      tag_197\n        /* \"#utility.yul\":9203:9204   */\n      dup3\n        /* \"#utility.yul\":9185:9205   */\n      tag_150\n      jump\t// in\n    tag_197:\n        /* \"#utility.yul\":9180:9205   */\n      swap2\n      pop\n        /* \"#utility.yul\":9219:9239   */\n      tag_198\n        /* \"#utility.yul\":9237:9238   */\n      dup4\n        /* \"#utility.yul\":9219:9239   */\n      tag_150\n      jump\t// in\n    tag_198:\n        /* \"#utility.yul\":9214:9239   */\n      swap3\n      pop\n        /* \"#utility.yul\":9258:9259   */\n      dup3\n        /* \"#utility.yul\":9255:9256   */\n      dup3\n        /* \"#utility.yul\":9252:9260   */\n      lt\n        /* \"#utility.yul\":9249:9283   */\n      iszero\n      tag_199\n      jumpi\n        /* \"#utility.yul\":9263:9281   */\n      tag_200\n      tag_195\n      jump\t// in\n    tag_200:\n        /* \"#utility.yul\":9249:9283   */\n    tag_199:\n        /* \"#utility.yul\":9308:9309   */\n      dup3\n        /* \"#utility.yul\":9305:9306   */\n      dup3\n        /* \"#utility.yul\":9301:9310   */\n      sub\n        /* \"#utility.yul\":9293:9310   */\n      swap1\n      pop\n        /* \"#utility.yul\":9125:9316   */\n      swap3\n      swap2\n      pop\n      pop\n      jump\t// out\n        /* \"#utility.yul\":9322:9418   */\n    tag_113:\n        /* \"#utility.yul\":9359:9366   */\n      0x00\n        /* \"#utility.yul\":9388:9412   */\n      tag_202\n        /* \"#utility.yul\":9406:9411   */\n      dup3\n        /* \"#utility.yul\":9388:9412   */\n      tag_203\n      jump\t// in\n    tag_202:\n        /* \"#utility.yul\":9377:9412   */\n      swap1\n      pop\n        /* \"#utility.yul\":9322:9418   */\n      swap2\n      swap1\n      pop\n      jump\t// out\n        /* \"#utility.yul\":9424:9501   */\n    tag_117:\n        /* \"#utility.yul\":9461:9468   */\n      0x00\n        /* \"#utility.yul\":9490:9495   */\n      dup2\n        /* \"#utility.yul\":9479:9495   */\n      swap1\n      pop\n        /* \"#utility.yul\":9424:9501   */\n      swap2\n      swap1\n      pop\n      jump\t// out\n        /* \"#utility.yul\":9507:9596   */\n    tag_146:\n        /* \"#utility.yul\":9543:9550   */\n      0x00\n        /* \"#utility.yul\":9583:9589   */\n      0xffff\n        /* \"#utility.yul\":9576:9581   */\n      dup3\n        /* \"#utility.yul\":9572:9590   */\n      and\n        /* \"#utility.yul\":9561:9590   */\n      swap1\n      pop\n        /* \"#utility.yul\":9507:9596   */\n      swap2\n      swap1\n      pop\n      jump\t// out\n        /* \"#utility.yul\":9602:9728   */\n    tag_203:\n        /* \"#utility.yul\":9639:9646   */\n      0x00\n        /* \"#utility.yul\":9679:9721   */\n      0xffffffffffffffffffffffffffffffffffffffff\n        /* \"#utility.yul\":9672:9677   */\n      dup3\n        /* \"#utility.yul\":9668:9722   */\n      and\n        /* \"#utility.yul\":9657:9722   */\n      swap1\n      pop\n        /* \"#utility.yul\":9602:9728   */\n      swap2\n      swap1\n      pop\n      jump\t// out\n        /* \"#utility.yul\":9734:9811   */\n    tag_150:\n        /* \"#utility.yul\":9771:9778   */\n      0x00\n        /* \"#utility.yul\":9800:9805   */\n      dup2\n        /* \"#utility.yul\":9789:9805   */\n      swap1\n      pop\n        /* \"#utility.yul\":9734:9811   */\n      swap2\n      swap1\n      pop\n      jump\t// out\n        /* \"#utility.yul\":9817:9910   */\n    tag_154:\n        /* \"#utility.yul\":9853:9860   */\n      0x00\n        /* \"#utility.yul\":9893:9903   */\n      0xffffffff\n        /* \"#utility.yul\":9886:9891   */\n      dup3\n        /* \"#utility.yul\":9882:9904   */\n      and\n        /* \"#utility.yul\":9871:9904   */\n      swap1\n      pop\n        /* \"#utility.yul\":9817:9910   */\n      swap2\n      swap1\n      pop\n      jump\t// out\n        /* \"#utility.yul\":9916:10017   */\n    tag_158:\n        /* \"#utility.yul\":9952:9959   */\n      0x00\n        /* \"#utility.yul\":9992:10010   */\n      0xffffffffffffffff\n        /* \"#utility.yul\":9985:9990   */\n      dup3\n        /* \"#utility.yul\":9981:10011   */\n      and\n        /* \"#utility.yul\":9970:10011   */\n      swap1\n      pop\n        /* \"#utility.yul\":9916:10017   */\n      swap2\n      swap1\n      pop\n      jump\t// out\n        /* \"#utility.yul\":10023:10330   */\n    tag_125:\n        /* \"#utility.yul\":10091:10092   */\n      0x00\n        /* \"#utility.yul\":10101:10214   */\n    tag_211:\n        /* \"#utility.yul\":10115:10121   */\n      dup4\n        /* \"#utility.yul\":10112:10113   */\n      dup2\n        /* \"#utility.yul\":10109:10122   */\n      lt\n        /* \"#utility.yul\":10101:10214   */\n      iszero\n      tag_213\n      jumpi\n        /* \"#utility.yul\":10200:10201   */\n      dup1\n        /* \"#utility.yul\":10195:10198   */\n      dup3\n        /* \"#utility.yul\":10191:10202   */\n      add\n        /* \"#utility.yul\":10185:10203   */\n      mload\n        /* \"#utility.yul\":10181:10182   */\n      dup2\n        /* \"#utility.yul\":10176:10179   */\n      dup5\n        /* \"#utility.yul\":10172:10183   */\n      add\n        /* \"#utility.yul\":10165:10204   */\n      mstore\n        /* \"#utility.yul\":10137:10139   */\n      0x20\n        /* \"#utility.yul\":10134:10135   */\n      dup2\n        /* \"#utility.yul\":10130:10140   */\n      add\n        /* \"#utility.yul\":10125:10140   */\n      swap1\n      pop\n        /* \"#utility.yul\":10101:10214   */\n      jump(tag_211)\n    tag_213:\n        /* \"#utility.yul\":10232:10238   */\n      dup4\n        /* \"#utility.yul\":10229:10230   */\n      dup2\n        /* \"#utility.yul\":10226:10239   */\n      gt\n        /* \"#utility.yul\":10223:10324   */\n      iszero\n      tag_214\n      jumpi\n        /* \"#utility.yul\":10312:10313   */\n      0x00\n        /* \"#utility.yul\":10303:10309   */\n      dup5\n        /* \"#utility.yul\":10298:10301   */\n      dup5\n        /* \"#utility.yul\":10294:10310   */\n      add\n        /* \"#utility.yul\":10287:10314   */\n      mstore\n        /* \"#utility.yul\":10223:10324   */\n    tag_214:\n        /* \"#utility.yul\":10072:10330   */\n      pop\n        /* \"#utility.yul\":10023:10330   */\n      pop\n      pop\n      pop\n      jump\t// out\n        /* \"#utility.yul\":10336:10617   */\n    tag_182:\n        /* \"#utility.yul\":10419:10446   */\n      tag_216\n        /* \"#utility.yul\":10441:10445   */\n      dup3\n        /* \"#utility.yul\":10419:10446   */\n      tag_127\n      jump\t// in\n    tag_216:\n        /* \"#utility.yul\":10411:10417   */\n      dup2\n        /* \"#utility.yul\":10407:10447   */\n      add\n        /* \"#utility.yul\":10549:10555   */\n      dup2\n        /* \"#utility.yul\":10537:10547   */\n      dup2\n        /* \"#utility.yul\":10534:10556   */\n      lt\n        /* \"#utility.yul\":10513:10531   */\n      0xffffffffffffffff\n        /* \"#utility.yul\":10501:10511   */\n      dup3\n        /* \"#utility.yul\":10498:10532   */\n      gt\n        /* \"#utility.yul\":10495:10557   */\n      or\n        /* \"#utility.yul\":10492:10580   */\n      iszero\n      tag_217\n      jumpi\n        /* \"#utility.yul\":10560:10578   */\n      tag_218\n      tag_187\n      jump\t// in\n    tag_218:\n        /* \"#utility.yul\":10492:10580   */\n    tag_217:\n        /* \"#utility.yul\":10600:10610   */\n      dup1\n        /* \"#utility.yul\":10596:10598   */\n      0x40\n        /* \"#utility.yul\":10589:10611   */\n      mstore\n        /* \"#utility.yul\":10379:10617   */\n      pop\n        /* \"#utility.yul\":10336:10617   */\n      pop\n      pop\n      jump\t// out\n        /* \"#utility.yul\":10623:10799   */\n    tag_54:\n        /* \"#utility.yul\":10655:10656   */\n      0x00\n        /* \"#utility.yul\":10672:10692   */\n      tag_220\n        /* \"#utility.yul\":10690:10691   */\n      dup3\n        /* \"#utility.yul\":10672:10692   */\n      tag_150\n      jump\t// in\n    tag_220:\n        /* \"#utility.yul\":10667:10692   */\n      swap2\n      pop\n        /* \"#utility.yul\":10706:10726   */\n      tag_221\n        /* \"#utility.yul\":10724:10725   */\n      dup4\n        /* \"#utility.yul\":10706:10726   */\n      tag_150\n      jump\t// in\n    tag_221:\n        /* \"#utility.yul\":10701:10726   */\n      swap3\n      pop\n        /* \"#utility.yul\":10745:10746   */\n      dup3\n        /* \"#utility.yul\":10735:10770   */\n      tag_222\n      jumpi\n        /* \"#utility.yul\":10750:10768   */\n      tag_223\n      tag_224\n      jump\t// in\n    tag_223:\n        /* \"#utility.yul\":10735:10770   */\n    tag_222:\n        /* \"#utility.yul\":10791:10792   */\n      dup3\n        /* \"#utility.yul\":10788:10789   */\n      dup3\n        /* \"#utility.yul\":10784:10793   */\n      mod\n        /* \"#utility.yul\":10779:10793   */\n      swap1\n      pop\n        /* \"#utility.yul\":10623:10799   */\n      swap3\n      swap2\n      pop\n      pop\n      jump\t// out\n        /* \"#utility.yul\":10805:10985   */\n    tag_195:\n        /* \"#utility.yul\":10853:10930   */\n      0x4e487b7100000000000000000000000000000000000000000000000000000000\n        /* \"#utility.yul\":10850:10851   */\n      0x00\n        /* \"#utility.yul\":10843:10931   */\n      mstore\n        /* \"#utility.yul\":10950:10954   */\n      0x11\n        /* \"#utility.yul\":10947:10948   */\n      0x04\n        /* \"#utility.yul\":10940:10955   */\n      mstore\n        /* \"#utility.yul\":10974:10978   */\n      0x24\n        /* \"#utility.yul\":10971:10972   */\n      0x00\n        /* \"#utility.yul\":10964:10979   */\n      revert\n        /* \"#utility.yul\":10991:11171   */\n    tag_224:\n        /* \"#utility.yul\":11039:11116   */\n      0x4e487b7100000000000000000000000000000000000000000000000000000000\n        /* \"#utility.yul\":11036:11037   */\n      0x00\n        /* \"#utility.yul\":11029:11117   */\n      mstore\n        /* \"#utility.yul\":11136:11140   */\n      0x12\n        /* \"#utility.yul\":11133:11134   */\n      0x04\n        /* \"#utility.yul\":11126:11141   */\n      mstore\n        /* \"#utility.yul\":11160:11164   */\n      0x24\n        /* \"#utility.yul\":11157:11158   */\n      0x00\n        /* \"#utility.yul\":11150:11165   */\n      revert\n        /* \"#utility.yul\":11177:11357   */\n    tag_52:\n        /* \"#utility.yul\":11225:11302   */\n      0x4e487b7100000000000000000000000000000000000000000000000000000000\n        /* \"#utility.yul\":11222:11223   */\n      0x00\n        /* \"#utility.yul\":11215:11303   */\n      mstore\n        /* \"#utility.yul\":11322:11326   */\n      0x32\n        /* \"#utility.yul\":11319:11320   */\n      0x04\n        /* \"#utility.yul\":11312:11327   */\n      mstore\n        /* \"#utility.yul\":11346:11350   */\n      0x24\n        /* \"#utility.yul\":11343:11344   */\n      0x00\n        /* \"#utility.yul\":11336:11351   */\n      revert\n        /* \"#utility.yul\":11363:11543   */\n    tag_187:\n        /* \"#utility.yul\":11411:11488   */\n      0x4e487b7100000000000000000000000000000000000000000000000000000000\n        /* \"#utility.yul\":11408:11409   */\n      0x00\n        /* \"#utility.yul\":11401:11489   */\n      mstore\n        /* \"#utility.yul\":11508:11512   */\n      0x41\n        /* \"#utility.yul\":11505:11506   */\n      0x04\n        /* \"#utility.yul\":11498:11513   */\n      mstore\n        /* \"#utility.yul\":11532:11536   */\n      0x24\n        /* \"#utility.yul\":11529:11530   */\n      0x00\n        /* \"#utility.yul\":11522:11537   */\n      revert\n        /* \"#utility.yul\":11549:11666   */\n    tag_85:\n        /* \"#utility.yul\":11658:11659   */\n      0x00\n        /* \"#utility.yul\":11655:11656   */\n      dup1\n        /* \"#utility.yul\":11648:11660   */\n      revert\n        /* \"#utility.yul\":11672:11789   */\n    tag_71:\n        /* \"#utility.yul\":11781:11782   */\n      0x00\n        /* \"#utility.yul\":11778:11779   */\n      dup1\n        /* \"#utility.yul\":11771:11783   */\n      revert\n        /* \"#utility.yul\":11795:11912   */\n    tag_108:\n        /* \"#utility.yul\":11904:11905   */\n      0x00\n        /* \"#utility.yul\":11901:11902   */\n      dup1\n        /* \"#utility.yul\":11894:11906   */\n      revert\n        /* \"#utility.yul\":11918:12035   */\n    tag_96:\n        /* \"#utility.yul\":12027:12028   */\n      0x00\n        /* \"#utility.yul\":12024:12025   */\n      dup1\n        /* \"#utility.yul\":12017:12029   */\n      revert\n        /* \"#utility.yul\":12041:12143   */\n    tag_127:\n        /* \"#utility.yul\":12082:12088   */\n      0x00\n        /* \"#utility.yul\":12133:12135   */\n      0x1f\n        /* \"#utility.yul\":12129:12136   */\n      not\n        /* \"#utility.yul\":12124:12126   */\n      0x1f\n        /* \"#utility.yul\":12117:12122   */\n      dup4\n        /* \"#utility.yul\":12113:12127   */\n      add\n        /* \"#utility.yul\":12109:12137   */\n      and\n        /* \"#utility.yul\":12099:12137   */\n      swap1\n      pop\n        /* \"#utility.yul\":12041:12143   */\n      swap2\n      swap1\n      pop\n      jump\t// out\n        /* \"#utility.yul\":12149:12315   */\n    tag_132:\n        /* \"#utility.yul\":12289:12307   */\n      0x526f6c6c20696e2070726f677265737300000000000000000000000000000000\n        /* \"#utility.yul\":12285:12286   */\n      0x00\n        /* \"#utility.yul\":12277:12283   */\n      dup3\n        /* \"#utility.yul\":12273:12287   */\n      add\n        /* \"#utility.yul\":12266:12308   */\n      mstore\n        /* \"#utility.yul\":12149:12315   */\n      pop\n      jump\t// out\n        /* \"#utility.yul\":12321:12486   */\n    tag_137:\n        /* \"#utility.yul\":12461:12478   */\n      0x44696365206e6f7420726f6c6c65640000000000000000000000000000000000\n        /* \"#utility.yul\":12457:12458   */\n      0x00\n        /* \"#utility.yul\":12449:12455   */\n      dup3\n        /* \"#utility.yul\":12445:12459   */\n      add\n        /* \"#utility.yul\":12438:12479   */\n      mstore\n        /* \"#utility.yul\":12321:12486   */\n      pop\n      jump\t// out\n        /* \"#utility.yul\":12492:12656   */\n    tag_142:\n        /* \"#utility.yul\":12632:12648   */\n      0x416c726561647920726f6c6c6564000000000000000000000000000000000000\n        /* \"#utility.yul\":12628:12629   */\n      0x00\n        /* \"#utility.yul\":12620:12626   */\n      dup3\n        /* \"#utility.yul\":12616:12630   */\n      add\n        /* \"#utility.yul\":12609:12649   */\n      mstore\n        /* \"#utility.yul\":12492:12656   */\n      pop\n      jump\t// out\n        /* \"#utility.yul\":12662:12784   */\n    tag_80:\n        /* \"#utility.yul\":12735:12759   */\n      tag_238\n        /* \"#utility.yul\":12753:12758   */\n      dup2\n        /* \"#utility.yul\":12735:12759   */\n      tag_113\n      jump\t// in\n    tag_238:\n        /* \"#utility.yul\":12728:12733   */\n      dup2\n        /* \"#utility.yul\":12725:12760   */\n      eq\n        /* \"#utility.yul\":12715:12778   */\n      tag_239\n      jumpi\n        /* \"#utility.yul\":12774:12775   */\n      0x00\n        /* \"#utility.yul\":12771:12772   */\n      dup1\n        /* \"#utility.yul\":12764:12776   */\n      revert\n        /* \"#utility.yul\":12715:12778   */\n    tag_239:\n        /* \"#utility.yul\":12662:12784   */\n      pop\n      jump\t// out\n        /* \"#utility.yul\":12790:12912   */\n    tag_89:\n        /* \"#utility.yul\":12863:12887   */\n      tag_241\n        /* \"#utility.yul\":12881:12886   */\n      dup2\n        /* \"#utility.yul\":12863:12887   */\n      tag_150\n      jump\t// in\n    tag_241:\n        /* \"#utility.yul\":12856:12861   */\n      dup2\n        /* \"#utility.yul\":12853:12888   */\n      eq\n        /* \"#utility.yul\":12843:12906   */\n      tag_242\n      jumpi\n        /* \"#utility.yul\":12902:12903   */\n      0x00\n        /* \"#utility.yul\":12899:12900   */\n      dup1\n        /* \"#utility.yul\":12892:12904   */\n      revert\n        /* \"#utility.yul\":12843:12906   */\n    tag_242:\n        /* \"#utility.yul\":12790:12912   */\n      pop\n      jump\t// out\n\n    auxdata: 0xa26469706673582212208637f1c4fb06a9cf2726ee500a0c9685ed06deb30de8c4932ba1a6cd2a828d7764736f6c63430008070033\n}\n",
				"bytecode": {
					"linkReferences": {},
					"object": "60a0604052736168499c0cffcacd319c818142124b7a15e857ab600160006101000a81548173ffffffffffffffffffffffffffffffffffffffff021916908373ffffffffffffffffffffffffffffffffffffffff1602179055507fd89b2bf150e3b9e13446986e571fb9cab24b13cea0a43ea20a6049a85cc807cc60001b600255619c40600360006101000a81548163ffffffff021916908363ffffffff16021790555060038060046101000a81548161ffff021916908361ffff1602179055506001600360066101000a81548163ffffffff021916908363ffffffff160217905550348015620000ef57600080fd5b50604051620015a2380380620015a283398181016040528101906200011591906200025a565b600160009054906101000a900473ffffffffffffffffffffffffffffffffffffffff168073ffffffffffffffffffffffffffffffffffffffff1660808173ffffffffffffffffffffffffffffffffffffffff1660601b8152505050600160009054906101000a900473ffffffffffffffffffffffffffffffffffffffff166000806101000a81548173ffffffffffffffffffffffffffffffffffffffff021916908373ffffffffffffffffffffffffffffffffffffffff160217905550336003600a6101000a81548173ffffffffffffffffffffffffffffffffffffffff021916908373ffffffffffffffffffffffffffffffffffffffff16021790555080600060146101000a81548167ffffffffffffffff021916908367ffffffffffffffff16021790555050620002bf565b6000815190506200025481620002a5565b92915050565b600060208284031215620002735762000272620002a0565b5b6000620002838482850162000243565b91505092915050565b600067ffffffffffffffff82169050919050565b600080fd5b620002b0816200028c565b8114620002bc57600080fd5b50565b60805160601c6112be620002e46000396000818160c4015261011801526112be6000f3fe608060405234801561001057600080fd5b50600436106100415760003560e01c80631fe543e314610046578063b1cad5e314610062578063dd02d9e514610092575b600080fd5b610060600480360381019061005b9190610c89565b6100c2565b005b61007c60048036038101906100779190610c2f565b610182565b6040516100899190610e5d565b60405180910390f35b6100ac60048036038101906100a79190610c2f565b6102d9565b6040516100b99190610edf565b60405180910390f35b7f000000000000000000000000000000000000000000000000000000000000000073ffffffffffffffffffffffffffffffffffffffff163373ffffffffffffffffffffffffffffffffffffffff161461017457337f00000000000000000000000000000000000000000000000000000000000000006040517f1cf993f400000000000000000000000000000000000000000000000000000000815260040161016b929190610de1565b60405180910390fd5b61017e8282610598565b5050565b60606000600560008473ffffffffffffffffffffffffffffffffffffffff1673ffffffffffffffffffffffffffffffffffffffff168152602001908152602001600020541415610207576040517f08c379a00000000000000000000000000000000000000000000000000000000081526004016101fe90610e9f565b60405180910390fd5b602a600560008473ffffffffffffffffffffffffffffffffffffffff1673ffffffffffffffffffffffffffffffffffffffff16815260200190815260200160002054141561028a576040517f08c379a000000000000000000000000000000000000000000000000000000000815260040161028190610e7f565b60405180910390fd5b6102d2600560008473ffffffffffffffffffffffffffffffffffffffff1673ffffffffffffffffffffffffffffffffffffffff1681526020019081526020016000205461067a565b9050919050565b60006003600a9054906101000a900473ffffffffffffffffffffffffffffffffffffffff1673ffffffffffffffffffffffffffffffffffffffff163373ffffffffffffffffffffffffffffffffffffffff161461033557600080fd5b6000600560008473ffffffffffffffffffffffffffffffffffffffff1673ffffffffffffffffffffffffffffffffffffffff16815260200190815260200160002054146103b7576040517f08c379a00000000000000000000000000000000000000000000000000000000081526004016103ae90610ebf565b60405180910390fd5b60008054906101000a900473ffffffffffffffffffffffffffffffffffffffff1673ffffffffffffffffffffffffffffffffffffffff16635d3b1d30600254600060149054906101000a900467ffffffffffffffff16600360049054906101000a900461ffff16600360009054906101000a900463ffffffff16600360069054906101000a900463ffffffff166040518663ffffffff1660e01b8152600401610464959493929190610e0a565b602060405180830381600087803b15801561047e57600080fd5b505af1158015610492573d6000803e3d6000fd5b505050506040513d601f19601f820116820180604052508101906104b69190610c5c565b9050816004600083815260200190815260200160002060006101000a81548173ffffffffffffffffffffffffffffffffffffffff021916908373ffffffffffffffffffffffffffffffffffffffff160217905550602a600560008473ffffffffffffffffffffffffffffffffffffffff1673ffffffffffffffffffffffffffffffffffffffff168152602001908152602001600020819055508173ffffffffffffffffffffffffffffffffffffffff16817f3e7fdeab84c01ce5308321caa0b460e1c4ec3c7099223d79634d9a71d99932e360405160405180910390a3919050565b600060016014836000815181106105b2576105b161115c565b5b60200260200101516105c491906110cd565b6105ce9190610f67565b905080600560006004600087815260200190815260200160002060009054906101000a900473ffffffffffffffffffffffffffffffffffffffff1673ffffffffffffffffffffffffffffffffffffffff1673ffffffffffffffffffffffffffffffffffffffff1681526020019081526020016000208190555080837f54d97c1f7e5abad75bd421455cd4dd296852a52e1ea721f2cdb66d06fa2082a960405160405180910390a3505050565b606060006040518061028001604052806040518060400160405280600981526020017f54617267617279656e000000000000000000000000000000000000000000000081525081526020016040518060400160405280600981526020017f4c616e6e6973746572000000000000000000000000000000000000000000000081525081526020016040518060400160405280600581526020017f537461726b00000000000000000000000000000000000000000000000000000081525081526020016040518060400160405280600681526020017f547972656c6c000000000000000000000000000000000000000000000000000081525081526020016040518060400160405280600981526020017f426172617468656f6e000000000000000000000000000000000000000000000081525081526020016040518060400160405280600781526020017f4d617274656c6c0000000000000000000000000000000000000000000000000081525081526020016040518060400160405280600581526020017f54756c6c7900000000000000000000000000000000000000000000000000000081525081526020016040518060400160405280600681526020017f426f6c746f6e000000000000000000000000000000000000000000000000000081525081526020016040518060400160405280600781526020017f477265796a6f790000000000000000000000000000000000000000000000000081525081526020016040518060400160405280600581526020017f417272796e00000000000000000000000000000000000000000000000000000081525081526020016040518060400160405280600481526020017f467265790000000000000000000000000000000000000000000000000000000081525081526020016040518060400160405280600781526020017f4d6f726d6f6e740000000000000000000000000000000000000000000000000081525081526020016040518060400160405280600681526020017f5461726c6579000000000000000000000000000000000000000000000000000081525081526020016040518060400160405280600581526020017f4461796e6500000000000000000000000000000000000000000000000000000081525081526020016040518060400160405280600581526020017f556d62657200000000000000000000000000000000000000000000000000000081525081526020016040518060400160405280600881526020017f56616c6572796f6e00000000000000000000000000000000000000000000000081525081526020016040518060400160405280600881526020017f4d616e6465726c7900000000000000000000000000000000000000000000000081525081526020016040518060400160405280600781526020017f436c6567616e650000000000000000000000000000000000000000000000000081525081526020016040518060400160405280600681526020017f476c6f766572000000000000000000000000000000000000000000000000000081525081526020016040518060400160405280600881526020017f4b6172737461726b000000000000000000000000000000000000000000000000815250815250905080600184610b349190610fbd565b60148110610b4557610b4461115c565b5b6020020151915050919050565b6000610b65610b6084610f1f565b610efa565b90508083825260208201905082856020860282011115610b8857610b876111bf565b5b60005b85811015610bb85781610b9e8882610c05565b845260208401935060208301925050600181019050610b8b565b5050509392505050565b600081359050610bd18161125a565b92915050565b600082601f830112610bec57610beb6111ba565b5b8135610bfc848260208601610b52565b91505092915050565b600081359050610c1481611271565b92915050565b600081519050610c2981611271565b92915050565b600060208284031215610c4557610c446111c9565b5b6000610c5384828501610bc2565b91505092915050565b600060208284031215610c7257610c716111c9565b5b6000610c8084828501610c1a565b91505092915050565b60008060408385031215610ca057610c9f6111c9565b5b6000610cae85828601610c05565b925050602083013567ffffffffffffffff811115610ccf57610cce6111c4565b5b610cdb85828601610bd7565b9150509250929050565b610cee81610ff1565b82525050565b610cfd81611003565b82525050565b6000610d0e82610f4b565b610d188185610f56565b9350610d28818560208601611069565b610d31816111ce565b840191505092915050565b6000610d49601083610f56565b9150610d54826111df565b602082019050919050565b6000610d6c600f83610f56565b9150610d7782611208565b602082019050919050565b6000610d8f600e83610f56565b9150610d9a82611231565b602082019050919050565b610dae8161100d565b82525050565b610dbd8161103b565b82525050565b610dcc81611045565b82525050565b610ddb81611055565b82525050565b6000604082019050610df66000830185610ce5565b610e036020830184610ce5565b9392505050565b600060a082019050610e1f6000830188610cf4565b610e2c6020830187610dd2565b610e396040830186610da5565b610e466060830185610dc3565b610e536080830184610dc3565b9695505050505050565b60006020820190508181036000830152610e778184610d03565b905092915050565b60006020820190508181036000830152610e9881610d3c565b9050919050565b60006020820190508181036000830152610eb881610d5f565b9050919050565b60006020820190508181036000830152610ed881610d82565b9050919050565b6000602082019050610ef46000830184610db4565b92915050565b6000610f04610f15565b9050610f10828261109c565b919050565b6000604051905090565b600067ffffffffffffffff821115610f3a57610f3961118b565b5b602082029050602081019050919050565b600081519050919050565b600082825260208201905092915050565b6000610f728261103b565b9150610f7d8361103b565b9250827fffffffffffffffffffffffffffffffffffffffffffffffffffffffffffffffff03821115610fb257610fb16110fe565b5b828201905092915050565b6000610fc88261103b565b9150610fd38361103b565b925082821015610fe657610fe56110fe565b5b828203905092915050565b6000610ffc8261101b565b9050919050565b6000819050919050565b600061ffff82169050919050565b600073ffffffffffffffffffffffffffffffffffffffff82169050919050565b6000819050919050565b600063ffffffff82169050919050565b600067ffffffffffffffff82169050919050565b60005b8381101561108757808201518184015260208101905061106c565b83811115611096576000848401525b50505050565b6110a5826111ce565b810181811067ffffffffffffffff821117156110c4576110c361118b565b5b80604052505050565b60006110d88261103b565b91506110e38361103b565b9250826110f3576110f261112d565b5b828206905092915050565b7f4e487b7100000000000000000000000000000000000000000000000000000000600052601160045260246000fd5b7f4e487b7100000000000000000000000000000000000000000000000000000000600052601260045260246000fd5b7f4e487b7100000000000000000000000000000000000000000000000000000000600052603260045260246000fd5b7f4e487b7100000000000000000000000000000000000000000000000000000000600052604160045260246000fd5b600080fd5b600080fd5b600080fd5b600080fd5b6000601f19601f8301169050919050565b7f526f6c6c20696e2070726f677265737300000000000000000000000000000000600082015250565b7f44696365206e6f7420726f6c6c65640000000000000000000000000000000000600082015250565b7f416c726561647920726f6c6c6564000000000000000000000000000000000000600082015250565b61126381610ff1565b811461126e57600080fd5b50565b61127a8161103b565b811461128557600080fd5b5056fea26469706673582212208637f1c4fb06a9cf2726ee500a0c9685ed06deb30de8c4932ba1a6cd2a828d7764736f6c63430008070033",
					"opcodes": "PUSH1 0xA0 PUSH1 0x40 MSTORE PUSH20 0x6168499C0CFFCACD319C818142124B7A15E857AB PUSH1 0x1 PUSH1 0x0 PUSH2 0x100 EXP DUP2 SLOAD DUP2 PUSH20 0xFFFFFFFFFFFFFFFFFFFFFFFFFFFFFFFFFFFFFFFF MUL NOT AND SWAP1 DUP4 PUSH20 0xFFFFFFFFFFFFFFFFFFFFFFFFFFFFFFFFFFFFFFFF AND MUL OR SWAP1 SSTORE POP PUSH32 0xD89B2BF150E3B9E13446986E571FB9CAB24B13CEA0A43EA20A6049A85CC807CC PUSH1 0x0 SHL PUSH1 0x2 SSTORE PUSH2 0x9C40 PUSH1 0x3 PUSH1 0x0 PUSH2 0x100 EXP DUP2 SLOAD DUP2 PUSH4 0xFFFFFFFF MUL NOT AND SWAP1 DUP4 PUSH4 0xFFFFFFFF AND MUL OR SWAP1 SSTORE POP PUSH1 0x3 DUP1 PUSH1 0x4 PUSH2 0x100 EXP DUP2 SLOAD DUP2 PUSH2 0xFFFF MUL NOT AND SWAP1 DUP4 PUSH2 0xFFFF AND MUL OR SWAP1 SSTORE POP PUSH1 0x1 PUSH1 0x3 PUSH1 0x6 PUSH2 0x100 EXP DUP2 SLOAD DUP2 PUSH4 0xFFFFFFFF MUL NOT AND SWAP1 DUP4 PUSH4 0xFFFFFFFF AND MUL OR SWAP1 SSTORE POP CALLVALUE DUP1 ISZERO PUSH3 0xEF JUMPI PUSH1 0x0 DUP1 REVERT JUMPDEST POP PUSH1 0x40 MLOAD PUSH3 0x15A2 CODESIZE SUB DUP1 PUSH3 0x15A2 DUP4 CODECOPY DUP2 DUP2 ADD PUSH1 0x40 MSTORE DUP2 ADD SWAP1 PUSH3 0x115 SWAP2 SWAP1 PUSH3 0x25A JUMP JUMPDEST PUSH1 0x1 PUSH1 0x0 SWAP1 SLOAD SWAP1 PUSH2 0x100 EXP SWAP1 DIV PUSH20 0xFFFFFFFFFFFFFFFFFFFFFFFFFFFFFFFFFFFFFFFF AND DUP1 PUSH20 0xFFFFFFFFFFFFFFFFFFFFFFFFFFFFFFFFFFFFFFFF AND PUSH1 0x80 DUP2 PUSH20 0xFFFFFFFFFFFFFFFFFFFFFFFFFFFFFFFFFFFFFFFF AND PUSH1 0x60 SHL DUP2 MSTORE POP POP POP PUSH1 0x1 PUSH1 0x0 SWAP1 SLOAD SWAP1 PUSH2 0x100 EXP SWAP1 DIV PUSH20 0xFFFFFFFFFFFFFFFFFFFFFFFFFFFFFFFFFFFFFFFF AND PUSH1 0x0 DUP1 PUSH2 0x100 EXP DUP2 SLOAD DUP2 PUSH20 0xFFFFFFFFFFFFFFFFFFFFFFFFFFFFFFFFFFFFFFFF MUL NOT AND SWAP1 DUP4 PUSH20 0xFFFFFFFFFFFFFFFFFFFFFFFFFFFFFFFFFFFFFFFF AND MUL OR SWAP1 SSTORE POP CALLER PUSH1 0x3 PUSH1 0xA PUSH2 0x100 EXP DUP2 SLOAD DUP2 PUSH20 0xFFFFFFFFFFFFFFFFFFFFFFFFFFFFFFFFFFFFFFFF MUL NOT AND SWAP1 DUP4 PUSH20 0xFFFFFFFFFFFFFFFFFFFFFFFFFFFFFFFFFFFFFFFF AND MUL OR SWAP1 SSTORE POP DUP1 PUSH1 0x0 PUSH1 0x14 PUSH2 0x100 EXP DUP2 SLOAD DUP2 PUSH8 0xFFFFFFFFFFFFFFFF MUL NOT AND SWAP1 DUP4 PUSH8 0xFFFFFFFFFFFFFFFF AND MUL OR SWAP1 SSTORE POP POP PUSH3 0x2BF JUMP JUMPDEST PUSH1 0x0 DUP2 MLOAD SWAP1 POP PUSH3 0x254 DUP2 PUSH3 0x2A5 JUMP JUMPDEST SWAP3 SWAP2 POP POP JUMP JUMPDEST PUSH1 0x0 PUSH1 0x20 DUP3 DUP5 SUB SLT ISZERO PUSH3 0x273 JUMPI PUSH3 0x272 PUSH3 0x2A0 JUMP JUMPDEST JUMPDEST PUSH1 0x0 PUSH3 0x283 DUP5 DUP3 DUP6 ADD PUSH3 0x243 JUMP JUMPDEST SWAP2 POP POP SWAP3 SWAP2 POP POP JUMP JUMPDEST PUSH1 0x0 PUSH8 0xFFFFFFFFFFFFFFFF DUP3 AND SWAP1 POP SWAP2 SWAP1 POP JUMP JUMPDEST PUSH1 0x0 DUP1 REVERT JUMPDEST PUSH3 0x2B0 DUP2 PUSH3 0x28C JUMP JUMPDEST DUP2 EQ PUSH3 0x2BC JUMPI PUSH1 0x0 DUP1 REVERT JUMPDEST POP JUMP JUMPDEST PUSH1 0x80 MLOAD PUSH1 0x60 SHR PUSH2 0x12BE PUSH3 0x2E4 PUSH1 0x0 CODECOPY PUSH1 0x0 DUP2 DUP2 PUSH1 0xC4 ADD MSTORE PUSH2 0x118 ADD MSTORE PUSH2 0x12BE PUSH1 0x0 RETURN INVALID PUSH1 0x80 PUSH1 0x40 MSTORE CALLVALUE DUP1 ISZERO PUSH2 0x10 JUMPI PUSH1 0x0 DUP1 REVERT JUMPDEST POP PUSH1 0x4 CALLDATASIZE LT PUSH2 0x41 JUMPI PUSH1 0x0 CALLDATALOAD PUSH1 0xE0 SHR DUP1 PUSH4 0x1FE543E3 EQ PUSH2 0x46 JUMPI DUP1 PUSH4 0xB1CAD5E3 EQ PUSH2 0x62 JUMPI DUP1 PUSH4 0xDD02D9E5 EQ PUSH2 0x92 JUMPI JUMPDEST PUSH1 0x0 DUP1 REVERT JUMPDEST PUSH2 0x60 PUSH1 0x4 DUP1 CALLDATASIZE SUB DUP2 ADD SWAP1 PUSH2 0x5B SWAP2 SWAP1 PUSH2 0xC89 JUMP JUMPDEST PUSH2 0xC2 JUMP JUMPDEST STOP JUMPDEST PUSH2 0x7C PUSH1 0x4 DUP1 CALLDATASIZE SUB DUP2 ADD SWAP1 PUSH2 0x77 SWAP2 SWAP1 PUSH2 0xC2F JUMP JUMPDEST PUSH2 0x182 JUMP JUMPDEST PUSH1 0x40 MLOAD PUSH2 0x89 SWAP2 SWAP1 PUSH2 0xE5D JUMP JUMPDEST PUSH1 0x40 MLOAD DUP1 SWAP2 SUB SWAP1 RETURN JUMPDEST PUSH2 0xAC PUSH1 0x4 DUP1 CALLDATASIZE SUB DUP2 ADD SWAP1 PUSH2 0xA7 SWAP2 SWAP1 PUSH2 0xC2F JUMP JUMPDEST PUSH2 0x2D9 JUMP JUMPDEST PUSH1 0x40 MLOAD PUSH2 0xB9 SWAP2 SWAP1 PUSH2 0xEDF JUMP JUMPDEST PUSH1 0x40 MLOAD DUP1 SWAP2 SUB SWAP1 RETURN JUMPDEST PUSH32 0x0 PUSH20 0xFFFFFFFFFFFFFFFFFFFFFFFFFFFFFFFFFFFFFFFF AND CALLER PUSH20 0xFFFFFFFFFFFFFFFFFFFFFFFFFFFFFFFFFFFFFFFF AND EQ PUSH2 0x174 JUMPI CALLER PUSH32 0x0 PUSH1 0x40 MLOAD PUSH32 0x1CF993F400000000000000000000000000000000000000000000000000000000 DUP2 MSTORE PUSH1 0x4 ADD PUSH2 0x16B SWAP3 SWAP2 SWAP1 PUSH2 0xDE1 JUMP JUMPDEST PUSH1 0x40 MLOAD DUP1 SWAP2 SUB SWAP1 REVERT JUMPDEST PUSH2 0x17E DUP3 DUP3 PUSH2 0x598 JUMP JUMPDEST POP POP JUMP JUMPDEST PUSH1 0x60 PUSH1 0x0 PUSH1 0x5 PUSH1 0x0 DUP5 PUSH20 0xFFFFFFFFFFFFFFFFFFFFFFFFFFFFFFFFFFFFFFFF AND PUSH20 0xFFFFFFFFFFFFFFFFFFFFFFFFFFFFFFFFFFFFFFFF AND DUP2 MSTORE PUSH1 0x20 ADD SWAP1 DUP2 MSTORE PUSH1 0x20 ADD PUSH1 0x0 KECCAK256 SLOAD EQ ISZERO PUSH2 0x207 JUMPI PUSH1 0x40 MLOAD PUSH32 0x8C379A000000000000000000000000000000000000000000000000000000000 DUP2 MSTORE PUSH1 0x4 ADD PUSH2 0x1FE SWAP1 PUSH2 0xE9F JUMP JUMPDEST PUSH1 0x40 MLOAD DUP1 SWAP2 SUB SWAP1 REVERT JUMPDEST PUSH1 0x2A PUSH1 0x5 PUSH1 0x0 DUP5 PUSH20 0xFFFFFFFFFFFFFFFFFFFFFFFFFFFFFFFFFFFFFFFF AND PUSH20 0xFFFFFFFFFFFFFFFFFFFFFFFFFFFFFFFFFFFFFFFF AND DUP2 MSTORE PUSH1 0x20 ADD SWAP1 DUP2 MSTORE PUSH1 0x20 ADD PUSH1 0x0 KECCAK256 SLOAD EQ ISZERO PUSH2 0x28A JUMPI PUSH1 0x40 MLOAD PUSH32 0x8C379A000000000000000000000000000000000000000000000000000000000 DUP2 MSTORE PUSH1 0x4 ADD PUSH2 0x281 SWAP1 PUSH2 0xE7F JUMP JUMPDEST PUSH1 0x40 MLOAD DUP1 SWAP2 SUB SWAP1 REVERT JUMPDEST PUSH2 0x2D2 PUSH1 0x5 PUSH1 0x0 DUP5 PUSH20 0xFFFFFFFFFFFFFFFFFFFFFFFFFFFFFFFFFFFFFFFF AND PUSH20 0xFFFFFFFFFFFFFFFFFFFFFFFFFFFFFFFFFFFFFFFF AND DUP2 MSTORE PUSH1 0x20 ADD SWAP1 DUP2 MSTORE PUSH1 0x20 ADD PUSH1 0x0 KECCAK256 SLOAD PUSH2 0x67A JUMP JUMPDEST SWAP1 POP SWAP2 SWAP1 POP JUMP JUMPDEST PUSH1 0x0 PUSH1 0x3 PUSH1 0xA SWAP1 SLOAD SWAP1 PUSH2 0x100 EXP SWAP1 DIV PUSH20 0xFFFFFFFFFFFFFFFFFFFFFFFFFFFFFFFFFFFFFFFF AND PUSH20 0xFFFFFFFFFFFFFFFFFFFFFFFFFFFFFFFFFFFFFFFF AND CALLER PUSH20 0xFFFFFFFFFFFFFFFFFFFFFFFFFFFFFFFFFFFFFFFF AND EQ PUSH2 0x335 JUMPI PUSH1 0x0 DUP1 REVERT JUMPDEST PUSH1 0x0 PUSH1 0x5 PUSH1 0x0 DUP5 PUSH20 0xFFFFFFFFFFFFFFFFFFFFFFFFFFFFFFFFFFFFFFFF AND PUSH20 0xFFFFFFFFFFFFFFFFFFFFFFFFFFFFFFFFFFFFFFFF AND DUP2 MSTORE PUSH1 0x20 ADD SWAP1 DUP2 MSTORE PUSH1 0x20 ADD PUSH1 0x0 KECCAK256 SLOAD EQ PUSH2 0x3B7 JUMPI PUSH1 0x40 MLOAD PUSH32 0x8C379A000000000000000000000000000000000000000000000000000000000 DUP2 MSTORE PUSH1 0x4 ADD PUSH2 0x3AE SWAP1 PUSH2 0xEBF JUMP JUMPDEST PUSH1 0x40 MLOAD DUP1 SWAP2 SUB SWAP1 REVERT JUMPDEST PUSH1 0x0 DUP1 SLOAD SWAP1 PUSH2 0x100 EXP SWAP1 DIV PUSH20 0xFFFFFFFFFFFFFFFFFFFFFFFFFFFFFFFFFFFFFFFF AND PUSH20 0xFFFFFFFFFFFFFFFFFFFFFFFFFFFFFFFFFFFFFFFF AND PUSH4 0x5D3B1D30 PUSH1 0x2 SLOAD PUSH1 0x0 PUSH1 0x14 SWAP1 SLOAD SWAP1 PUSH2 0x100 EXP SWAP1 DIV PUSH8 0xFFFFFFFFFFFFFFFF AND PUSH1 0x3 PUSH1 0x4 SWAP1 SLOAD SWAP1 PUSH2 0x100 EXP SWAP1 DIV PUSH2 0xFFFF AND PUSH1 0x3 PUSH1 0x0 SWAP1 SLOAD SWAP1 PUSH2 0x100 EXP SWAP1 DIV PUSH4 0xFFFFFFFF AND PUSH1 0x3 PUSH1 0x6 SWAP1 SLOAD SWAP1 PUSH2 0x100 EXP SWAP1 DIV PUSH4 0xFFFFFFFF AND PUSH1 0x40 MLOAD DUP7 PUSH4 0xFFFFFFFF AND PUSH1 0xE0 SHL DUP2 MSTORE PUSH1 0x4 ADD PUSH2 0x464 SWAP6 SWAP5 SWAP4 SWAP3 SWAP2 SWAP1 PUSH2 0xE0A JUMP JUMPDEST PUSH1 0x20 PUSH1 0x40 MLOAD DUP1 DUP4 SUB DUP2 PUSH1 0x0 DUP8 DUP1 EXTCODESIZE ISZERO DUP1 ISZERO PUSH2 0x47E JUMPI PUSH1 0x0 DUP1 REVERT JUMPDEST POP GAS CALL ISZERO DUP1 ISZERO PUSH2 0x492 JUMPI RETURNDATASIZE PUSH1 0x0 DUP1 RETURNDATACOPY RETURNDATASIZE PUSH1 0x0 REVERT JUMPDEST POP POP POP POP PUSH1 0x40 MLOAD RETURNDATASIZE PUSH1 0x1F NOT PUSH1 0x1F DUP3 ADD AND DUP3 ADD DUP1 PUSH1 0x40 MSTORE POP DUP2 ADD SWAP1 PUSH2 0x4B6 SWAP2 SWAP1 PUSH2 0xC5C JUMP JUMPDEST SWAP1 POP DUP2 PUSH1 0x4 PUSH1 0x0 DUP4 DUP2 MSTORE PUSH1 0x20 ADD SWAP1 DUP2 MSTORE PUSH1 0x20 ADD PUSH1 0x0 KECCAK256 PUSH1 0x0 PUSH2 0x100 EXP DUP2 SLOAD DUP2 PUSH20 0xFFFFFFFFFFFFFFFFFFFFFFFFFFFFFFFFFFFFFFFF MUL NOT AND SWAP1 DUP4 PUSH20 0xFFFFFFFFFFFFFFFFFFFFFFFFFFFFFFFFFFFFFFFF AND MUL OR SWAP1 SSTORE POP PUSH1 0x2A PUSH1 0x5 PUSH1 0x0 DUP5 PUSH20 0xFFFFFFFFFFFFFFFFFFFFFFFFFFFFFFFFFFFFFFFF AND PUSH20 0xFFFFFFFFFFFFFFFFFFFFFFFFFFFFFFFFFFFFFFFF AND DUP2 MSTORE PUSH1 0x20 ADD SWAP1 DUP2 MSTORE PUSH1 0x20 ADD PUSH1 0x0 KECCAK256 DUP2 SWAP1 SSTORE POP DUP2 PUSH20 0xFFFFFFFFFFFFFFFFFFFFFFFFFFFFFFFFFFFFFFFF AND DUP2 PUSH32 0x3E7FDEAB84C01CE5308321CAA0B460E1C4EC3C7099223D79634D9A71D99932E3 PUSH1 0x40 MLOAD PUSH1 0x40 MLOAD DUP1 SWAP2 SUB SWAP1 LOG3 SWAP2 SWAP1 POP JUMP JUMPDEST PUSH1 0x0 PUSH1 0x1 PUSH1 0x14 DUP4 PUSH1 0x0 DUP2 MLOAD DUP2 LT PUSH2 0x5B2 JUMPI PUSH2 0x5B1 PUSH2 0x115C JUMP JUMPDEST JUMPDEST PUSH1 0x20 MUL PUSH1 0x20 ADD ADD MLOAD PUSH2 0x5C4 SWAP2 SWAP1 PUSH2 0x10CD JUMP JUMPDEST PUSH2 0x5CE SWAP2 SWAP1 PUSH2 0xF67 JUMP JUMPDEST SWAP1 POP DUP1 PUSH1 0x5 PUSH1 0x0 PUSH1 0x4 PUSH1 0x0 DUP8 DUP2 MSTORE PUSH1 0x20 ADD SWAP1 DUP2 MSTORE PUSH1 0x20 ADD PUSH1 0x0 KECCAK256 PUSH1 0x0 SWAP1 SLOAD SWAP1 PUSH2 0x100 EXP SWAP1 DIV PUSH20 0xFFFFFFFFFFFFFFFFFFFFFFFFFFFFFFFFFFFFFFFF AND PUSH20 0xFFFFFFFFFFFFFFFFFFFFFFFFFFFFFFFFFFFFFFFF AND PUSH20 0xFFFFFFFFFFFFFFFFFFFFFFFFFFFFFFFFFFFFFFFF AND DUP2 MSTORE PUSH1 0x20 ADD SWAP1 DUP2 MSTORE PUSH1 0x20 ADD PUSH1 0x0 KECCAK256 DUP2 SWAP1 SSTORE POP DUP1 DUP4 PUSH32 0x54D97C1F7E5ABAD75BD421455CD4DD296852A52E1EA721F2CDB66D06FA2082A9 PUSH1 0x40 MLOAD PUSH1 0x40 MLOAD DUP1 SWAP2 SUB SWAP1 LOG3 POP POP POP JUMP JUMPDEST PUSH1 0x60 PUSH1 0x0 PUSH1 0x40 MLOAD DUP1 PUSH2 0x280 ADD PUSH1 0x40 MSTORE DUP1 PUSH1 0x40 MLOAD DUP1 PUSH1 0x40 ADD PUSH1 0x40 MSTORE DUP1 PUSH1 0x9 DUP2 MSTORE PUSH1 0x20 ADD PUSH32 0x54617267617279656E0000000000000000000000000000000000000000000000 DUP2 MSTORE POP DUP2 MSTORE PUSH1 0x20 ADD PUSH1 0x40 MLOAD DUP1 PUSH1 0x40 ADD PUSH1 0x40 MSTORE DUP1 PUSH1 0x9 DUP2 MSTORE PUSH1 0x20 ADD PUSH32 0x4C616E6E69737465720000000000000000000000000000000000000000000000 DUP2 MSTORE POP DUP2 MSTORE PUSH1 0x20 ADD PUSH1 0x40 MLOAD DUP1 PUSH1 0x40 ADD PUSH1 0x40 MSTORE DUP1 PUSH1 0x5 DUP2 MSTORE PUSH1 0x20 ADD PUSH32 0x537461726B000000000000000000000000000000000000000000000000000000 DUP2 MSTORE POP DUP2 MSTORE PUSH1 0x20 ADD PUSH1 0x40 MLOAD DUP1 PUSH1 0x40 ADD PUSH1 0x40 MSTORE DUP1 PUSH1 0x6 DUP2 MSTORE PUSH1 0x20 ADD PUSH32 0x547972656C6C0000000000000000000000000000000000000000000000000000 DUP2 MSTORE POP DUP2 MSTORE PUSH1 0x20 ADD PUSH1 0x40 MLOAD DUP1 PUSH1 0x40 ADD PUSH1 0x40 MSTORE DUP1 PUSH1 0x9 DUP2 MSTORE PUSH1 0x20 ADD PUSH32 0x426172617468656F6E0000000000000000000000000000000000000000000000 DUP2 MSTORE POP DUP2 MSTORE PUSH1 0x20 ADD PUSH1 0x40 MLOAD DUP1 PUSH1 0x40 ADD PUSH1 0x40 MSTORE DUP1 PUSH1 0x7 DUP2 MSTORE PUSH1 0x20 ADD PUSH32 0x4D617274656C6C00000000000000000000000000000000000000000000000000 DUP2 MSTORE POP DUP2 MSTORE PUSH1 0x20 ADD PUSH1 0x40 MLOAD DUP1 PUSH1 0x40 ADD PUSH1 0x40 MSTORE DUP1 PUSH1 0x5 DUP2 MSTORE PUSH1 0x20 ADD PUSH32 0x54756C6C79000000000000000000000000000000000000000000000000000000 DUP2 MSTORE POP DUP2 MSTORE PUSH1 0x20 ADD PUSH1 0x40 MLOAD DUP1 PUSH1 0x40 ADD PUSH1 0x40 MSTORE DUP1 PUSH1 0x6 DUP2 MSTORE PUSH1 0x20 ADD PUSH32 0x426F6C746F6E0000000000000000000000000000000000000000000000000000 DUP2 MSTORE POP DUP2 MSTORE PUSH1 0x20 ADD PUSH1 0x40 MLOAD DUP1 PUSH1 0x40 ADD PUSH1 0x40 MSTORE DUP1 PUSH1 0x7 DUP2 MSTORE PUSH1 0x20 ADD PUSH32 0x477265796A6F7900000000000000000000000000000000000000000000000000 DUP2 MSTORE POP DUP2 MSTORE PUSH1 0x20 ADD PUSH1 0x40 MLOAD DUP1 PUSH1 0x40 ADD PUSH1 0x40 MSTORE DUP1 PUSH1 0x5 DUP2 MSTORE PUSH1 0x20 ADD PUSH32 0x417272796E000000000000000000000000000000000000000000000000000000 DUP2 MSTORE POP DUP2 MSTORE PUSH1 0x20 ADD PUSH1 0x40 MLOAD DUP1 PUSH1 0x40 ADD PUSH1 0x40 MSTORE DUP1 PUSH1 0x4 DUP2 MSTORE PUSH1 0x20 ADD PUSH32 0x4672657900000000000000000000000000000000000000000000000000000000 DUP2 MSTORE POP DUP2 MSTORE PUSH1 0x20 ADD PUSH1 0x40 MLOAD DUP1 PUSH1 0x40 ADD PUSH1 0x40 MSTORE DUP1 PUSH1 0x7 DUP2 MSTORE PUSH1 0x20 ADD PUSH32 0x4D6F726D6F6E7400000000000000000000000000000000000000000000000000 DUP2 MSTORE POP DUP2 MSTORE PUSH1 0x20 ADD PUSH1 0x40 MLOAD DUP1 PUSH1 0x40 ADD PUSH1 0x40 MSTORE DUP1 PUSH1 0x6 DUP2 MSTORE PUSH1 0x20 ADD PUSH32 0x5461726C65790000000000000000000000000000000000000000000000000000 DUP2 MSTORE POP DUP2 MSTORE PUSH1 0x20 ADD PUSH1 0x40 MLOAD DUP1 PUSH1 0x40 ADD PUSH1 0x40 MSTORE DUP1 PUSH1 0x5 DUP2 MSTORE PUSH1 0x20 ADD PUSH32 0x4461796E65000000000000000000000000000000000000000000000000000000 DUP2 MSTORE POP DUP2 MSTORE PUSH1 0x20 ADD PUSH1 0x40 MLOAD DUP1 PUSH1 0x40 ADD PUSH1 0x40 MSTORE DUP1 PUSH1 0x5 DUP2 MSTORE PUSH1 0x20 ADD PUSH32 0x556D626572000000000000000000000000000000000000000000000000000000 DUP2 MSTORE POP DUP2 MSTORE PUSH1 0x20 ADD PUSH1 0x40 MLOAD DUP1 PUSH1 0x40 ADD PUSH1 0x40 MSTORE DUP1 PUSH1 0x8 DUP2 MSTORE PUSH1 0x20 ADD PUSH32 0x56616C6572796F6E000000000000000000000000000000000000000000000000 DUP2 MSTORE POP DUP2 MSTORE PUSH1 0x20 ADD PUSH1 0x40 MLOAD DUP1 PUSH1 0x40 ADD PUSH1 0x40 MSTORE DUP1 PUSH1 0x8 DUP2 MSTORE PUSH1 0x20 ADD PUSH32 0x4D616E6465726C79000000000000000000000000000000000000000000000000 DUP2 MSTORE POP DUP2 MSTORE PUSH1 0x20 ADD PUSH1 0x40 MLOAD DUP1 PUSH1 0x40 ADD PUSH1 0x40 MSTORE DUP1 PUSH1 0x7 DUP2 MSTORE PUSH1 0x20 ADD PUSH32 0x436C6567616E6500000000000000000000000000000000000000000000000000 DUP2 MSTORE POP DUP2 MSTORE PUSH1 0x20 ADD PUSH1 0x40 MLOAD DUP1 PUSH1 0x40 ADD PUSH1 0x40 MSTORE DUP1 PUSH1 0x6 DUP2 MSTORE PUSH1 0x20 ADD PUSH32 0x476C6F7665720000000000000000000000000000000000000000000000000000 DUP2 MSTORE POP DUP2 MSTORE PUSH1 0x20 ADD PUSH1 0x40 MLOAD DUP1 PUSH1 0x40 ADD PUSH1 0x40 MSTORE DUP1 PUSH1 0x8 DUP2 MSTORE PUSH1 0x20 ADD PUSH32 0x4B6172737461726B000000000000000000000000000000000000000000000000 DUP2 MSTORE POP DUP2 MSTORE POP SWAP1 POP DUP1 PUSH1 0x1 DUP5 PUSH2 0xB34 SWAP2 SWAP1 PUSH2 0xFBD JUMP JUMPDEST PUSH1 0x14 DUP2 LT PUSH2 0xB45 JUMPI PUSH2 0xB44 PUSH2 0x115C JUMP JUMPDEST JUMPDEST PUSH1 0x20 MUL ADD MLOAD SWAP2 POP POP SWAP2 SWAP1 POP JUMP JUMPDEST PUSH1 0x0 PUSH2 0xB65 PUSH2 0xB60 DUP5 PUSH2 0xF1F JUMP JUMPDEST PUSH2 0xEFA JUMP JUMPDEST SWAP1 POP DUP1 DUP4 DUP3 MSTORE PUSH1 0x20 DUP3 ADD SWAP1 POP DUP3 DUP6 PUSH1 0x20 DUP7 MUL DUP3 ADD GT ISZERO PUSH2 0xB88 JUMPI PUSH2 0xB87 PUSH2 0x11BF JUMP JUMPDEST JUMPDEST PUSH1 0x0 JUMPDEST DUP6 DUP2 LT ISZERO PUSH2 0xBB8 JUMPI DUP2 PUSH2 0xB9E DUP9 DUP3 PUSH2 0xC05 JUMP JUMPDEST DUP5 MSTORE PUSH1 0x20 DUP5 ADD SWAP4 POP PUSH1 0x20 DUP4 ADD SWAP3 POP POP PUSH1 0x1 DUP2 ADD SWAP1 POP PUSH2 0xB8B JUMP JUMPDEST POP POP POP SWAP4 SWAP3 POP POP POP JUMP JUMPDEST PUSH1 0x0 DUP2 CALLDATALOAD SWAP1 POP PUSH2 0xBD1 DUP2 PUSH2 0x125A JUMP JUMPDEST SWAP3 SWAP2 POP POP JUMP JUMPDEST PUSH1 0x0 DUP3 PUSH1 0x1F DUP4 ADD SLT PUSH2 0xBEC JUMPI PUSH2 0xBEB PUSH2 0x11BA JUMP JUMPDEST JUMPDEST DUP2 CALLDATALOAD PUSH2 0xBFC DUP5 DUP3 PUSH1 0x20 DUP7 ADD PUSH2 0xB52 JUMP JUMPDEST SWAP2 POP POP SWAP3 SWAP2 POP POP JUMP JUMPDEST PUSH1 0x0 DUP2 CALLDATALOAD SWAP1 POP PUSH2 0xC14 DUP2 PUSH2 0x1271 JUMP JUMPDEST SWAP3 SWAP2 POP POP JUMP JUMPDEST PUSH1 0x0 DUP2 MLOAD SWAP1 POP PUSH2 0xC29 DUP2 PUSH2 0x1271 JUMP JUMPDEST SWAP3 SWAP2 POP POP JUMP JUMPDEST PUSH1 0x0 PUSH1 0x20 DUP3 DUP5 SUB SLT ISZERO PUSH2 0xC45 JUMPI PUSH2 0xC44 PUSH2 0x11C9 JUMP JUMPDEST JUMPDEST PUSH1 0x0 PUSH2 0xC53 DUP5 DUP3 DUP6 ADD PUSH2 0xBC2 JUMP JUMPDEST SWAP2 POP POP SWAP3 SWAP2 POP POP JUMP JUMPDEST PUSH1 0x0 PUSH1 0x20 DUP3 DUP5 SUB SLT ISZERO PUSH2 0xC72 JUMPI PUSH2 0xC71 PUSH2 0x11C9 JUMP JUMPDEST JUMPDEST PUSH1 0x0 PUSH2 0xC80 DUP5 DUP3 DUP6 ADD PUSH2 0xC1A JUMP JUMPDEST SWAP2 POP POP SWAP3 SWAP2 POP POP JUMP JUMPDEST PUSH1 0x0 DUP1 PUSH1 0x40 DUP4 DUP6 SUB SLT ISZERO PUSH2 0xCA0 JUMPI PUSH2 0xC9F PUSH2 0x11C9 JUMP JUMPDEST JUMPDEST PUSH1 0x0 PUSH2 0xCAE DUP6 DUP3 DUP7 ADD PUSH2 0xC05 JUMP JUMPDEST SWAP3 POP POP PUSH1 0x20 DUP4 ADD CALLDATALOAD PUSH8 0xFFFFFFFFFFFFFFFF DUP2 GT ISZERO PUSH2 0xCCF JUMPI PUSH2 0xCCE PUSH2 0x11C4 JUMP JUMPDEST JUMPDEST PUSH2 0xCDB DUP6 DUP3 DUP7 ADD PUSH2 0xBD7 JUMP JUMPDEST SWAP2 POP POP SWAP3 POP SWAP3 SWAP1 POP JUMP JUMPDEST PUSH2 0xCEE DUP2 PUSH2 0xFF1 JUMP JUMPDEST DUP3 MSTORE POP POP JUMP JUMPDEST PUSH2 0xCFD DUP2 PUSH2 0x1003 JUMP JUMPDEST DUP3 MSTORE POP POP JUMP JUMPDEST PUSH1 0x0 PUSH2 0xD0E DUP3 PUSH2 0xF4B JUMP JUMPDEST PUSH2 0xD18 DUP2 DUP6 PUSH2 0xF56 JUMP JUMPDEST SWAP4 POP PUSH2 0xD28 DUP2 DUP6 PUSH1 0x20 DUP7 ADD PUSH2 0x1069 JUMP JUMPDEST PUSH2 0xD31 DUP2 PUSH2 0x11CE JUMP JUMPDEST DUP5 ADD SWAP2 POP POP SWAP3 SWAP2 POP POP JUMP JUMPDEST PUSH1 0x0 PUSH2 0xD49 PUSH1 0x10 DUP4 PUSH2 0xF56 JUMP JUMPDEST SWAP2 POP PUSH2 0xD54 DUP3 PUSH2 0x11DF JUMP JUMPDEST PUSH1 0x20 DUP3 ADD SWAP1 POP SWAP2 SWAP1 POP JUMP JUMPDEST PUSH1 0x0 PUSH2 0xD6C PUSH1 0xF DUP4 PUSH2 0xF56 JUMP JUMPDEST SWAP2 POP PUSH2 0xD77 DUP3 PUSH2 0x1208 JUMP JUMPDEST PUSH1 0x20 DUP3 ADD SWAP1 POP SWAP2 SWAP1 POP JUMP JUMPDEST PUSH1 0x0 PUSH2 0xD8F PUSH1 0xE DUP4 PUSH2 0xF56 JUMP JUMPDEST SWAP2 POP PUSH2 0xD9A DUP3 PUSH2 0x1231 JUMP JUMPDEST PUSH1 0x20 DUP3 ADD SWAP1 POP SWAP2 SWAP1 POP JUMP JUMPDEST PUSH2 0xDAE DUP2 PUSH2 0x100D JUMP JUMPDEST DUP3 MSTORE POP POP JUMP JUMPDEST PUSH2 0xDBD DUP2 PUSH2 0x103B JUMP JUMPDEST DUP3 MSTORE POP POP JUMP JUMPDEST PUSH2 0xDCC DUP2 PUSH2 0x1045 JUMP JUMPDEST DUP3 MSTORE POP POP JUMP JUMPDEST PUSH2 0xDDB DUP2 PUSH2 0x1055 JUMP JUMPDEST DUP3 MSTORE POP POP JUMP JUMPDEST PUSH1 0x0 PUSH1 0x40 DUP3 ADD SWAP1 POP PUSH2 0xDF6 PUSH1 0x0 DUP4 ADD DUP6 PUSH2 0xCE5 JUMP JUMPDEST PUSH2 0xE03 PUSH1 0x20 DUP4 ADD DUP5 PUSH2 0xCE5 JUMP JUMPDEST SWAP4 SWAP3 POP POP POP JUMP JUMPDEST PUSH1 0x0 PUSH1 0xA0 DUP3 ADD SWAP1 POP PUSH2 0xE1F PUSH1 0x0 DUP4 ADD DUP9 PUSH2 0xCF4 JUMP JUMPDEST PUSH2 0xE2C PUSH1 0x20 DUP4 ADD DUP8 PUSH2 0xDD2 JUMP JUMPDEST PUSH2 0xE39 PUSH1 0x40 DUP4 ADD DUP7 PUSH2 0xDA5 JUMP JUMPDEST PUSH2 0xE46 PUSH1 0x60 DUP4 ADD DUP6 PUSH2 0xDC3 JUMP JUMPDEST PUSH2 0xE53 PUSH1 0x80 DUP4 ADD DUP5 PUSH2 0xDC3 JUMP JUMPDEST SWAP7 SWAP6 POP POP POP POP POP POP JUMP JUMPDEST PUSH1 0x0 PUSH1 0x20 DUP3 ADD SWAP1 POP DUP2 DUP2 SUB PUSH1 0x0 DUP4 ADD MSTORE PUSH2 0xE77 DUP2 DUP5 PUSH2 0xD03 JUMP JUMPDEST SWAP1 POP SWAP3 SWAP2 POP POP JUMP JUMPDEST PUSH1 0x0 PUSH1 0x20 DUP3 ADD SWAP1 POP DUP2 DUP2 SUB PUSH1 0x0 DUP4 ADD MSTORE PUSH2 0xE98 DUP2 PUSH2 0xD3C JUMP JUMPDEST SWAP1 POP SWAP2 SWAP1 POP JUMP JUMPDEST PUSH1 0x0 PUSH1 0x20 DUP3 ADD SWAP1 POP DUP2 DUP2 SUB PUSH1 0x0 DUP4 ADD MSTORE PUSH2 0xEB8 DUP2 PUSH2 0xD5F JUMP JUMPDEST SWAP1 POP SWAP2 SWAP1 POP JUMP JUMPDEST PUSH1 0x0 PUSH1 0x20 DUP3 ADD SWAP1 POP DUP2 DUP2 SUB PUSH1 0x0 DUP4 ADD MSTORE PUSH2 0xED8 DUP2 PUSH2 0xD82 JUMP JUMPDEST SWAP1 POP SWAP2 SWAP1 POP JUMP JUMPDEST PUSH1 0x0 PUSH1 0x20 DUP3 ADD SWAP1 POP PUSH2 0xEF4 PUSH1 0x0 DUP4 ADD DUP5 PUSH2 0xDB4 JUMP JUMPDEST SWAP3 SWAP2 POP POP JUMP JUMPDEST PUSH1 0x0 PUSH2 0xF04 PUSH2 0xF15 JUMP JUMPDEST SWAP1 POP PUSH2 0xF10 DUP3 DUP3 PUSH2 0x109C JUMP JUMPDEST SWAP2 SWAP1 POP JUMP JUMPDEST PUSH1 0x0 PUSH1 0x40 MLOAD SWAP1 POP SWAP1 JUMP JUMPDEST PUSH1 0x0 PUSH8 0xFFFFFFFFFFFFFFFF DUP3 GT ISZERO PUSH2 0xF3A JUMPI PUSH2 0xF39 PUSH2 0x118B JUMP JUMPDEST JUMPDEST PUSH1 0x20 DUP3 MUL SWAP1 POP PUSH1 0x20 DUP2 ADD SWAP1 POP SWAP2 SWAP1 POP JUMP JUMPDEST PUSH1 0x0 DUP2 MLOAD SWAP1 POP SWAP2 SWAP1 POP JUMP JUMPDEST PUSH1 0x0 DUP3 DUP3 MSTORE PUSH1 0x20 DUP3 ADD SWAP1 POP SWAP3 SWAP2 POP POP JUMP JUMPDEST PUSH1 0x0 PUSH2 0xF72 DUP3 PUSH2 0x103B JUMP JUMPDEST SWAP2 POP PUSH2 0xF7D DUP4 PUSH2 0x103B JUMP JUMPDEST SWAP3 POP DUP3 PUSH32 0xFFFFFFFFFFFFFFFFFFFFFFFFFFFFFFFFFFFFFFFFFFFFFFFFFFFFFFFFFFFFFFFF SUB DUP3 GT ISZERO PUSH2 0xFB2 JUMPI PUSH2 0xFB1 PUSH2 0x10FE JUMP JUMPDEST JUMPDEST DUP3 DUP3 ADD SWAP1 POP SWAP3 SWAP2 POP POP JUMP JUMPDEST PUSH1 0x0 PUSH2 0xFC8 DUP3 PUSH2 0x103B JUMP JUMPDEST SWAP2 POP PUSH2 0xFD3 DUP4 PUSH2 0x103B JUMP JUMPDEST SWAP3 POP DUP3 DUP3 LT ISZERO PUSH2 0xFE6 JUMPI PUSH2 0xFE5 PUSH2 0x10FE JUMP JUMPDEST JUMPDEST DUP3 DUP3 SUB SWAP1 POP SWAP3 SWAP2 POP POP JUMP JUMPDEST PUSH1 0x0 PUSH2 0xFFC DUP3 PUSH2 0x101B JUMP JUMPDEST SWAP1 POP SWAP2 SWAP1 POP JUMP JUMPDEST PUSH1 0x0 DUP2 SWAP1 POP SWAP2 SWAP1 POP JUMP JUMPDEST PUSH1 0x0 PUSH2 0xFFFF DUP3 AND SWAP1 POP SWAP2 SWAP1 POP JUMP JUMPDEST PUSH1 0x0 PUSH20 0xFFFFFFFFFFFFFFFFFFFFFFFFFFFFFFFFFFFFFFFF DUP3 AND SWAP1 POP SWAP2 SWAP1 POP JUMP JUMPDEST PUSH1 0x0 DUP2 SWAP1 POP SWAP2 SWAP1 POP JUMP JUMPDEST PUSH1 0x0 PUSH4 0xFFFFFFFF DUP3 AND SWAP1 POP SWAP2 SWAP1 POP JUMP JUMPDEST PUSH1 0x0 PUSH8 0xFFFFFFFFFFFFFFFF DUP3 AND SWAP1 POP SWAP2 SWAP1 POP JUMP JUMPDEST PUSH1 0x0 JUMPDEST DUP4 DUP2 LT ISZERO PUSH2 0x1087 JUMPI DUP1 DUP3 ADD MLOAD DUP2 DUP5 ADD MSTORE PUSH1 0x20 DUP2 ADD SWAP1 POP PUSH2 0x106C JUMP JUMPDEST DUP4 DUP2 GT ISZERO PUSH2 0x1096 JUMPI PUSH1 0x0 DUP5 DUP5 ADD MSTORE JUMPDEST POP POP POP POP JUMP JUMPDEST PUSH2 0x10A5 DUP3 PUSH2 0x11CE JUMP JUMPDEST DUP2 ADD DUP2 DUP2 LT PUSH8 0xFFFFFFFFFFFFFFFF DUP3 GT OR ISZERO PUSH2 0x10C4 JUMPI PUSH2 0x10C3 PUSH2 0x118B JUMP JUMPDEST JUMPDEST DUP1 PUSH1 0x40 MSTORE POP POP POP JUMP JUMPDEST PUSH1 0x0 PUSH2 0x10D8 DUP3 PUSH2 0x103B JUMP JUMPDEST SWAP2 POP PUSH2 0x10E3 DUP4 PUSH2 0x103B JUMP JUMPDEST SWAP3 POP DUP3 PUSH2 0x10F3 JUMPI PUSH2 0x10F2 PUSH2 0x112D JUMP JUMPDEST JUMPDEST DUP3 DUP3 MOD SWAP1 POP SWAP3 SWAP2 POP POP JUMP JUMPDEST PUSH32 0x4E487B7100000000000000000000000000000000000000000000000000000000 PUSH1 0x0 MSTORE PUSH1 0x11 PUSH1 0x4 MSTORE PUSH1 0x24 PUSH1 0x0 REVERT JUMPDEST PUSH32 0x4E487B7100000000000000000000000000000000000000000000000000000000 PUSH1 0x0 MSTORE PUSH1 0x12 PUSH1 0x4 MSTORE PUSH1 0x24 PUSH1 0x0 REVERT JUMPDEST PUSH32 0x4E487B7100000000000000000000000000000000000000000000000000000000 PUSH1 0x0 MSTORE PUSH1 0x32 PUSH1 0x4 MSTORE PUSH1 0x24 PUSH1 0x0 REVERT JUMPDEST PUSH32 0x4E487B7100000000000000000000000000000000000000000000000000000000 PUSH1 0x0 MSTORE PUSH1 0x41 PUSH1 0x4 MSTORE PUSH1 0x24 PUSH1 0x0 REVERT JUMPDEST PUSH1 0x0 DUP1 REVERT JUMPDEST PUSH1 0x0 DUP1 REVERT JUMPDEST PUSH1 0x0 DUP1 REVERT JUMPDEST PUSH1 0x0 DUP1 REVERT JUMPDEST PUSH1 0x0 PUSH1 0x1F NOT PUSH1 0x1F DUP4 ADD AND SWAP1 POP SWAP2 SWAP1 POP JUMP JUMPDEST PUSH32 0x526F6C6C20696E2070726F677265737300000000000000000000000000000000 PUSH1 0x0 DUP3 ADD MSTORE POP JUMP JUMPDEST PUSH32 0x44696365206E6F7420726F6C6C65640000000000000000000000000000000000 PUSH1 0x0 DUP3 ADD MSTORE POP JUMP JUMPDEST PUSH32 0x416C726561647920726F6C6C6564000000000000000000000000000000000000 PUSH1 0x0 DUP3 ADD MSTORE POP JUMP JUMPDEST PUSH2 0x1263 DUP2 PUSH2 0xFF1 JUMP JUMPDEST DUP2 EQ PUSH2 0x126E JUMPI PUSH1 0x0 DUP1 REVERT JUMPDEST POP JUMP JUMPDEST PUSH2 0x127A DUP2 PUSH2 0x103B JUMP JUMPDEST DUP2 EQ PUSH2 0x1285 JUMPI PUSH1 0x0 DUP1 REVERT JUMPDEST POP JUMP INVALID LOG2 PUSH5 0x6970667358 0x22 SLT KECCAK256 DUP7 CALLDATACOPY CALL 0xC4 0xFB MOD 0xA9 0xCF 0x27 0x26 0xEE POP EXP 0xC SWAP7 DUP6 0xED MOD 0xDE 0xB3 0xD 0xE8 0xC4 SWAP4 0x2B LOG1 0xA6 0xCD 0x2A DUP3 DUP14 PUSH24 0x64736F6C6343000807003300000000000000000000000000 "
				},
				"gasEstimates": {
					"creation": {
						"codeDepositCost": "959600",
						"executionCost": "infinite",
						"totalCost": "infinite"
					},
					"external": {
						"house(address)": "infinite",
						"rawFulfillRandomWords(uint256,uint256[])": "infinite",
						"rollDice(address)": "infinite"
					},
					"internal": {
						"fulfillRandomWords(uint256,uint256[] memory)": "infinite",
						"getHouseName(uint256)": "infinite"
					}
				},
				"methodIdentifiers": {
					"house(address)": "b1cad5e3",
					"rawFulfillRandomWords(uint256,uint256[])": "1fe543e3",
					"rollDice(address)": "dd02d9e5"
				}
			},
			"storageLayout": {
				"storage": [
					{
						"astId": 166,
						"contract": "docs.chain.link/samples/VRF/VRFD20.sol:VRFD20",
						"label": "COORDINATOR",
						"offset": 0,
						"slot": "0",
						"type": "t_contract(VRFCoordinatorV2Interface)153"
					},
					{
						"astId": 168,
						"contract": "docs.chain.link/samples/VRF/VRFD20.sol:VRFD20",
						"label": "s_subscriptionId",
						"offset": 20,
						"slot": "0",
						"type": "t_uint64"
					},
					{
						"astId": 171,
						"contract": "docs.chain.link/samples/VRF/VRFD20.sol:VRFD20",
						"label": "vrfCoordinator",
						"offset": 0,
						"slot": "1",
						"type": "t_address"
					},
					{
						"astId": 174,
						"contract": "docs.chain.link/samples/VRF/VRFD20.sol:VRFD20",
						"label": "s_keyHash",
						"offset": 0,
						"slot": "2",
						"type": "t_bytes32"
					},
					{
						"astId": 177,
						"contract": "docs.chain.link/samples/VRF/VRFD20.sol:VRFD20",
						"label": "callbackGasLimit",
						"offset": 0,
						"slot": "3",
						"type": "t_uint32"
					},
					{
						"astId": 180,
						"contract": "docs.chain.link/samples/VRF/VRFD20.sol:VRFD20",
						"label": "requestConfirmations",
						"offset": 4,
						"slot": "3",
						"type": "t_uint16"
					},
					{
						"astId": 183,
						"contract": "docs.chain.link/samples/VRF/VRFD20.sol:VRFD20",
						"label": "numWords",
						"offset": 6,
						"slot": "3",
						"type": "t_uint32"
					},
					{
						"astId": 185,
						"contract": "docs.chain.link/samples/VRF/VRFD20.sol:VRFD20",
						"label": "s_owner",
						"offset": 10,
						"slot": "3",
						"type": "t_address"
					},
					{
						"astId": 189,
						"contract": "docs.chain.link/samples/VRF/VRFD20.sol:VRFD20",
						"label": "s_rollers",
						"offset": 0,
						"slot": "4",
						"type": "t_mapping(t_uint256,t_address)"
					},
					{
						"astId": 193,
						"contract": "docs.chain.link/samples/VRF/VRFD20.sol:VRFD20",
						"label": "s_results",
						"offset": 0,
						"slot": "5",
						"type": "t_mapping(t_address,t_uint256)"
					}
				],
				"types": {
					"t_address": {
						"encoding": "inplace",
						"label": "address",
						"numberOfBytes": "20"
					},
					"t_bytes32": {
						"encoding": "inplace",
						"label": "bytes32",
						"numberOfBytes": "32"
					},
					"t_contract(VRFCoordinatorV2Interface)153": {
						"encoding": "inplace",
						"label": "contract VRFCoordinatorV2Interface",
						"numberOfBytes": "20"
					},
					"t_mapping(t_address,t_uint256)": {
						"encoding": "mapping",
						"key": "t_address",
						"label": "mapping(address => uint256)",
						"numberOfBytes": "32",
						"value": "t_uint256"
					},
					"t_mapping(t_uint256,t_address)": {
						"encoding": "mapping",
						"key": "t_uint256",
						"label": "mapping(uint256 => address)",
						"numberOfBytes": "32",
						"value": "t_address"
					},
					"t_uint16": {
						"encoding": "inplace",
						"label": "uint16",
						"numberOfBytes": "2"
					},
					"t_uint256": {
						"encoding": "inplace",
						"label": "uint256",
						"numberOfBytes": "32"
					},
					"t_uint32": {
						"encoding": "inplace",
						"label": "uint32",
						"numberOfBytes": "4"
					},
					"t_uint64": {
						"encoding": "inplace",
						"label": "uint64",
						"numberOfBytes": "8"
					}
				}
			},
			"userdoc": {
				"kind": "user",
				"methods": {
					"constructor": {
						"notice": "Constructor inherits VRFConsumerBaseV2"
					},
					"house(address)": {
						"notice": "Get the house assigned to the player once the address has rolled"
					},
					"rollDice(address)": {
						"notice": "Requests randomness"
					}
				},
				"notice": "THIS IS AN EXAMPLE CONTRACT THAT USES HARDCODED VALUES FOR CLARITY. THIS IS AN EXAMPLE CONTRACT THAT USES UN-AUDITED CODE. DO NOT USE THIS CODE IN PRODUCTION.",
				"version": 1
			}
		}
	}
}